S02B00004F75747075742F5345532F49505F6F7665725F5553425F5765627365727665725F44656275672F452F
S31508000000000001205D020008AD010008AF010008EC
S31508000010B1010008B3010008B5010008000000009E
S31508000020000000000000000000000000B701000802
S315080000300000000000000000DD82010821A401087C
S31508000040BF010008BD010008C1010008C30100087E
S31508000050C5010008C7010008C9010008CB0100084E
S31508000060CD010008CF010008D1010008D30100081E
S31508000070D5010008D7010008D9010008DB010008EE
S31508000080DD010008DF010008E1010008E3010008BE
S31508000090E5010008E7010008E9010008EB0100088E
S315080000A0ED010008BD010008EF010008BD010008C8
S315080000B0F1010008F3010008F5010008F70100083E
S315080000C0F9010008BD010008BD010008FB01000890
S315080000D0FD010008FF0100080102000803020008EC
S315080000E00502000807020008090200080B020008BA
S315080000F00D0200080F02000811020008130200088A
S315080001001502000817020008190200081B02000859
S31508000110BD0100081D0200081F0200082102000890
S315080001202302000825020008270200082902000801
S315080001302B0200082D0200082F02000831020008D1
S31508000140330200083502000837020008F19D01084D
S315080001503B0200083D0200083F020008BD010008F6
S31508000160BD010008BD01000841020008430200085D
S3150800017045020008099F010849020008BD01000858
S315080001804B020008BD010008BD0100084D02000829
S315080001904F020008510200085302000855020008E1
S311080001A057020008590200085B0200081C
S315080001ACFEE7FEE7FEE7FEE7FEE7FEE7FEE7FEE70D
S315080001BCFEE7FEE7FEE7FEE7FEE7FEE7FEE7FEE7FD
S315080001CCFEE7FEE7FEE7FEE7FEE7FEE7FEE7FEE7ED
S315080001DCFEE7FEE7FEE7FEE7FEE7FEE7FEE7FEE7DD
S315080001ECFEE7FEE7FEE7FEE7FEE7FEE7FEE7FEE7CD
S315080001FCFEE7FEE7FEE7FEE7FEE7FEE7FEE7FEE7BD
S3150800020CFEE7FEE7FEE7FEE7FEE7FEE7FEE7FEE7AC
S3150800021CFEE7FEE7FEE7FEE7FEE7FEE7FEE7FEE79C
S3150800022CFEE7FEE7FEE7FEE7FEE7FEE7FEE7FEE78C
S3150800023CFEE7FEE7FEE7FEE7FEE7FEE7FEE7FEE77C
S3150800024CFEE7FEE7FEE7FEE7FEE7FEE7FEE7FEE76C
S3150800025C054820F0070085460448804704480549A8
S3150800026C016000F009B800000000012069A001082F
S3150800027C08ED00E000000008354936480A1A02D095
S3150800028C072291438D46344934480A1A06D0072268
S3150800029C914381F30988022282F314883048314944
S315080002AC314A00F043F831483149324A00F03EF8F9
S315080002BC31483249324A00F039F832483249334A21
S315080002CC00F034F832483349334A00F02FF83348F3
S315080002DC3349344A00F02AF833483449344A00F092
S315080002EC25F834483449002200F02BF833483449B1
S315080002FC002200F026F833483349091A082903DB8B
S3150800030C00220260043001601F482049884205D04B
S3150800031C0268043003B4904703BCF7E7002086460E
S3150800032CEC4600200021294A9047FEE7884207D070
S3150800033C521A05D0037801300B700131013AF9D104
S3150800034C7047884202D002700130FAE77047000005
S3150800035C0000012000FC0020000001200000012004
S3150800036C640A030800000020DD010020DC030008F5
S3150800037CDC030008CC260208640A030800000020E7
S3150800038C00000020CC260208CC260208CC2602083F
S3150800039CCC260208CC260208CC260208CC26020853
S315080003ACCC260208620A0308440C0308E001002064
S315080003BCE001002000000120CCD50120E00100203E
S315080003CCE0010020E0010020E0020020DD03000827
S315080003DC00B585B0294B5B78DBB203F0F003002B34
S315080003EC02D0992018F0DEFC802072B680F31188B2
S315080003FC62B600BF00BF214B5B78DBB20133DAB2C1
S3150800040C1E4B5A7016F0E0FA1AF08AF819F050FCDE
S3150800041C022302934FF480530193194B0093194B03
S3150800042C64221949194816F0D3FF194B1B78002B6F
S3150800043C02D1A52018F0B6FC15F04EFE03464CF278
S3150800044CA852934202D0FD2018F0ACFC802072B65C
S3150800045C80F3118862B600BF00BF0E4B1B78012BC8
S3150800046C02D1E42018F09EFC0A4B01221A7017F0F0
S3150800047C83FF0023184605B05DF804FB38C301203A
S3150800048C00000120E90C0008CC2602080010012007
S3150800049C0DC30120E5C2012000BF704784B001904E
S315080004AC009100230393019B5A1C01921B788DF82B
S315080004BC0B309DF80B30002B11D0009B5A1C009268
S315080004CC1B788DF80A309DF80B209DF80A309A4255
S315080004DC01D0012305E0039B01330393E3E700BF37
S315080004EC0023184604B0704700B585B001902F213B
S315080004FC019821F0F7F80290029B002B02D10023F9
S3150800050C039303E0029A019BD31A0393039B1846A1
S3150800051C05B05DF804FB000000B587B001901D4BD3
S3150800052C1B68059310E0059B04330393039B1B6818
S3150800053C1946019821F06EF80346002B01D1039B4E
S3150800054C24E0059B1B680593059B002BEBD1002328
S3150800055C0493049A13465B0013449B000E4A1344F7
S3150800056C0393039B1B68002B0ED0039B1B68194631
S3150800057C019821F04FF80346002B01D1039B05E0A7
S3150800058C049B01330493E4E700BF0023184607B025
S3150800059C5DF804FB601001200000002082B0019079
S315080005AC0023184602B0704700B587B00390029135
S315080005BC01920093039B0593059B5A68019B134470
S315080005CC009A1946029821F0B5F80023184607B088
S315080005DC5DF804FB84B00190019B0393039B9B6815
S315080005EC184604B07047000000B58DB00390029110
S315080005FC0192029821F046F80346069300230793C6
S3150800060C002308933A4B1B680B9325E00B9B04338A
S3150800061C0993099B1B6819460298FFF73FFF034687
S3150800062C002B16D1079B002B0AD0089B1868099B30
S3150800063C1B68079A194621F0F2F80346002B07D0D7
S3150800064C099B059305AA019B11460398984700E058
S3150800065C00BF0B9B1B680B930B9B002BD6D100235F
S3150800066C0A9324490A9A13465B0013449B000B44CD
S3150800067C1B68002B37D01F490A9A13465B00134494
S3150800068C9B000B441B6819460298FFF707FF0346A5
S3150800069C002B24D1079B002B14D0089B18681549EE
S315080006AC0A9A13465B0013449B000B441B68079A73
S315080006BC194621F0B4F80346002B03D10A9B0133E3
S315080006CC0A930FE00A9A13465B0013449B00094AE7
S315080006DC1344059305AA019B1146039898470A9B50
S315080006EC01330A93BDE700BF00BF0DB05DF804FBEC
S315080006FC601001200000002000B58BB00390029119
S3150800070C0192019B013B0193039B0693069B1B6875
S3150800071C059300230793059B1A68069B5B6813448D
S3150800072C0993099B1B782F2B05D1099B0133099338
S3150800073C079B013307930998FFF7D6FE03460893E0
S3150800074C089B002B04D1099820F09CFF08900BE01D
S3150800075C069B5A68079B1A44089B13445A1C069B0B
S3150800076C9A60069B059ADA60089A019B934228BF01
S3150800077C13460893089A0999029820F0DBFF029A07
S3150800078C089B134400221A7000BF0BB05DF804FBDB
S3150800079C00B589B001900091019B0593059B1B68D8
S315080007AC049300230693049B1A68059B5B68134401
S315080007BC0793079B1B782F2B02D1079B01330793B3
S315080007CC0798FFF791FE03460393039B002B02D170
S315080007DC049B9B680693069B184609B05DF804FBB8
S315080007EC00B589B00190019B0593059B1B68049382
S315080007FC00230693049B1A68059B5B6813440793AE
S3150800080C079B1B782F2B02D1079B0133079307985D
S3150800081CFFF76AFE03460393039B002B01D00123C3
S3150800082C0693069B184609B05DF804FB00B583B021
S3150800083C01900B468DF8033013468DF802309DF85F
S3150800084C0330002B03D19DF80230012B07D09DF8FD
S3150800085C0330012B06D19DF80230002B02D10198EA
S3150800086C03F060FE00BF03B05DF804FB00B589B069
S3150800087C0390012305930123069305AB08220092E6
S3150800088C80224FF0FF3103980CF0FCF903980CF01A
S3150800089CB1FA0790079B184609B05DF804FB00B53A
S315080008AC87B003900291019201980023029A03994A
S315080008BC0CF0B8F90590059B184607B05DF804FBD3
S315080008CC00B587B003900291019201980023029A11
S315080008DC03990CF0C1F90590059B184607B05DF80D
S315080008EC04FB000000B583B001900199034810F091
S315080008FC15FA0346184603B05DF804FB641001208C
S3150800090C00B583B00190019810F01EFA00BF03B031
S3150800091C5DF804FB00B583B001901D4B5B78DBB228
S3150800092C03F0F003002B02D0992018F03BFA802034
S3150800093C72B680F3118862B600BF00BF144B5B78A1
S3150800094CDBB20133DAB2124B5A70124B1A68019B9E
S3150800095C1344104A13600E4B5B78DBB203F0F003BA
S3150800096C002B02D0992018F01DFA094B5B78DBB2E4
S3150800097C013BDAB2064B5A70054B5B78DBB2002B9F
S3150800098C02D1002080F3118800BF03B05DF804FB88
S3150800099C38C301207024012000B58FB00390039B47
S315080009AC0C930123059305AB0422009208224FF001
S315080009BCFF310C980CF066F9184B1B6806A8184AF8
S315080009CC0092184A184913F08DFD184B1B68012B19
S315080009DC07DC06AB00220399184613F0FBFD0D90B5
S315080009EC06E006AB00220399184613F003FE0D9099
S315080009FC0D9B012B02D00C98FFF738FF15F032FF30
S31508000A0C4FF0FF30FFF786FF002017F0FDF915F0C1
S31508000A1C35FF00BF0FB05DF804FB00BFB8460120D8
S31508000A2C54C0020844AD02083CAD020870240120EB
S31508000A3C00B597B04FF47A730A93654B654A1A60FA
S31508000A4C04AB18220021184620F09EFE4FF4807342
S31508000A5C0493614B1B68184603F0A0FB0346483BFE
S31508000A6C05934FF480730893402306930C2307933E
S31508000A7C04AB184613F084FD002013F0E1FB149028
S31508000A8C149B40335B00149302224FF4A051534835
S31508000A9C0AF05CFA149BB3F5A05F03D91499504875
S31508000AAC0AF092FA4FF4A0514E4802F0B3FB00221A
S31508000ABC012102200CF070F91390139BB3F1FF3F40
S31508000ACC00D1FEE70BAB10220021184620F05CFE85
S31508000ADC0223ADF82C304FF4A043ADF82E3000238A
S31508000AEC0C930BAB1022194613980BF0D9FF142153
S31508000AFC13980CF055F80023129300220021139832
S31508000B0C0BF072FF1290129BB3F1FF3F5DD0364B80
S31508000B1C1B6A03F57A731193344B1B68012B3EDC65
S31508000B2C0023159338E0159B5C2202FB03F3304A2D
S31508000B3C1344184616F07CFF03461093109B002BA3
S31508000B4C27D10AAB0422009241F206024FF0FF317C
S31508000B5C12980CF097F8159B5C2202FB03F3244AB7
S31508000B6C9818159B40F6984202FB03F3214A134446
S31508000B7C129A03920222029240F69842019200932C
S31508000B8C1D4B96221D4916F03FFD0120FFF7C2FEAC
S31508000B9CB1E7159B01331593159B012BC3DD124B3E
S31508000BAC1B6A0F930F9A119BD31A002B09DD129B04
S31508000BBC1A461349134813F02DFD1298FFF756FEE3
S31508000BCC04E00A2016F042FEA6E700BF93E700BF32
S31508000BDCB8460120F8AC02086C2401204CAD02087A
S31508000BEC88AD02086410012038C301207024012046
S31508000BFCD02C0120882D0120A5090008B8AD0208C3
S31508000C0CAB080008CD08000800B58BB0039002911C
S31508000C1C03980FF040FC0990099802F0A3FD0346CF
S31508000C2C184610F04BF803460493049B002B47D048
S31508000C3C03980FF039FC089008222649089820F0EA
S31508000C4CEEFD0346002B3DD1802109980FF000FAE2
S31508000C5C0790079B002B37D007980FF025FC0690BA
S31508000C6C05AB0422194603980FF0B4F9802200212B
S31508000C7C069820F089FD069B174A1068186092881A
S31508000C8C9A80099802F06EFD0346184610F016F87D
S31508000C9C03460493069B2033049A1A60069B30334A
S31508000CAC06221946099802F05BFC09980599079BD8
S31508000CBC00934CF264334CF264320FF09DF904E065
S31508000CCC00BF02E000BF00E000BF002318460BB0CF
S31508000CDC5DF804FBC8AD0208D4AD020800B585B0B2
S31508000CEC03F028F803F0DCFA0346013B234A1360A9
S31508000CFC022302934FF400630193214B0093214B7B
S31508000D0C98222149214816F063FB2149214802F013
S31508000D1CB5FF1A4B1B68184603F0D2FB05E00020FA
S31508000D2C19F00AF8C82016F091FD144B1B681846E2
S31508000D3C02F0D0FF0346002BF1D0002018F0EEFF8E
S31508000D4C154B9B689721184616F016FF124B9B6895
S31508000D5C1249184616F0DEFF00230093104B4CF28E
S31508000D6C64324CF2643100200FF02EFA01F000FCCC
S31508000D7CFFF75EFE00BF05B05DF804FB6C2401208E
S31508000D8C74240120B1380008DCAD0208742C01204B
S31508000D9C390800086424012038C30120E4AD020890
S31508000DAC150C000800B58BB00390039B1B681846FE
S31508000DBC13F0D5FC0890089B002B02D1022309934B
S31508000DCC1EE000230993039B186804AB09220092C2
S31508000DDC07220E4913F04BFE0790079B002B0FDDDD
S31508000DEC079B092B0CD804AA079B134400221A70DC
S31508000DFC04AB184618F061FA03461A46089BDA60E3
S31508000E0C099B18460BB05DF804FB00BF00AE020840
S31508000E1C00B587B00190019B1B680493019B1B7955
S31508000E2C8DF80F309DF80F30002B12D160200FF083
S31508000E3C61FF0590059B002B0FD0602200210598B9
S31508000E4C20F0A2FC0599114B114A049813F0F1FDF8
S31508000E5C03E0049813F083FC05909DF80F30022BE1
S31508000E6C0BD1049813F07BFC0590059B002B02D044
S31508000E7C05980FF069FF002305930599049813F05C
S31508000E8C63FC00BF07B05DF804FB00BF08AE0208A0
S31508000E9CB10D000800B585B00190019813F05FFC00
S31508000EAC0390039B002B13D0039BDB685A1C039BF4
S31508000EBCDA60039B03F11000039BDB68074A502199
S31508000ECC18F0E6FD039B10331946019813F0A6FD9E
S31508000EDC0023184605B05DF804FB00BF14AE0208E3
S31508000EEC00B585B0019003230393019B9B89B3F549
S31508000EFCCA7F09D1019B1B6800220649184613F0C4
S31508000F0CFDFC0023039300E000BF039B184605B0C5
S31508000F1C5DF804FB58AE020886B003900291019264
S31508000F2C0FE0029B5A1C02921B788DF817309DF81D
S31508000F3C1730002B0CD0039B5A1C03929DF81720D4
S31508000F4C1A70019B013B0193019B002BE9DC00E025
S31508000F5C00BF039B00221A7000BF06B07047000042
S31508000F6C00B585B00390029101920849039813F0D5
S31508000F7C2DF90299039813F029F90549039813F0EA
S31508000F8C25F900BF05B05DF804FB00BF68AE020882
S31508000F9C8CAE020800B587B003900291019201232A
S31508000FAC0593039813F0DBFB0490049B002B02D0EB
S31508000FBC049BDB680593059A0349039813F0D4F848
S31508000FCC00BF07B05DF804FB9CAE020800B585B0FF
S31508000FDC039002910192084B1B680133064A136071
S31508000FEC054B1B681A460549039813F0BDF800BF54
S31508000FFC05B05DF804FB00BFBC460120DCAE020858
S3150800100C00B5ADB00190A549019813F0DFF8A449D5
S3150800101C019813F0DBF8A349019813F0D7F8A24905
S3150800102C019813F0D3F8A149019813F0CFF8A04909
S3150800103C019813F0CBF89F49019813F0C7F89D490E
S3150800104C019813F0C3F89949019813F0BFF89A4917
S3150800105C019813F0BBF8002002F084FB279003AB31
S3150800106C10222799184609F033FF03AB1946019845
S3150800107C13F0ACF8002002F05BFB27908F4901981F
S3150800108C13F0A4F803AB10222799184609F020FF91
S3150800109C03AB1946019813F099F88849019813F08F
S315080010AC95F88249019813F091F815F0DBFB844901
S315080010BC019813F08BF88349019813F087F819AB4C
S315080010CC0A2118460CF06CF82690269B2B930023C5
S315080010DC2A931CE02A9B9B00B0336B4453F84C3C78
S315080010EC07AA114618460CF08FF82590BDF8202053
S315080010FC2A9B5B00B0336B4423F8602C259B002B92
S3150800110C02D02B9B013B2B932A9B01332A932A9AB9
S3150800111C269B9A42DEDB2B9900230A22019813F0B0
S3150800112C62F800232A9359E02A9B28932A9B0133B9
S3150800113C299312E0299B5B00B0336B4433F8602C7F
S3150800114C289B5B00B0336B4433F8603C9A4201D25F
S3150800115C299B2893299B01332993299A269B9A42E2
S3150800116CE8DB2A9A289B9A4235D02A9B5B00B03337
S3150800117C6B4433F8603CADF892302A9B9B00B03335
S3150800118C6B4453F84C3C2393289B5B00B0336B445D
S3150800119C33F8602C2A9B5B00B0336B4423F8602C25
S315080011AC289B9B00B0336B4453F84C2C2A9B9B0012
S315080011BCB0336B4443F84C2C289B5B00B0336B4420
S315080011CCBDF8922023F8602C289B9B00B0336B4407
S315080011DC239A43F84C2C2A9B01332A932A9A269B4A
S315080011EC9A42A1DB3849019812F0F0FF3749019869
S315080011FC12F0ECFF3649019812F0E8FF35490198D0
S3150800120C12F0E4FF3449019812F0E0FF33490198D3
S3150800121C12F0DCFF3249019812F0D8FF31490198D7
S3150800122C12F0D4FF3049019812F0D0FF2F490198DB
S3150800123C12F0CCFF2E49019812F0C8FF2D490198DF
S3150800124C12F0C4FF00232A93F5E02A9B9B00B033C7
S3150800125C6B4453F84C3C07AA114618460BF0D4FFBE
S3150800126C2590259B002B40F0E3802349019812F02A
S3150800127CADFFBDF82030194600230A22019812F05A
S3150800128CB2FF1E49019812F0A1FF0B9B002B39D116
S3150800129C1B49019812F09AFF3FE000BF18AF0208ED
S315080012AC30AF020844AF020854AF020864AF020814
S315080012BC6CAF020880AF020888AF02089CAF020820
S315080012CCA4AF0208C0AF0208D4AF0208F8AF0208F0
S315080012DC00B0020808B0020818B0020828B00208C4
S315080012EC38B0020848B002085CB0020874B00208AC
S315080012FC88B00208A0B00208B8B00208C4B0020848
S3150800130CD0B002080B9903AB1022184609F0E0FD81
S3150800131C03AB1946019812F059FF4E49019812F081
S3150800132C55FFBDF83230194600230A22019812F0EF
S3150800133C5AFF4949019812F049FF0A9B002B04D120
S3150800134C4649019812F042FF16E00A9903AB10229F
S3150800135C184609F0BDFD03AB1946019812F036FF85
S3150800136C3C49019812F032FFBDF83030194600237B
S3150800137C0A22019812F037FF3949019812F026FF14
S3150800138C9DF8343018460BF0D5FF034619460198DC
S3150800139C12F01CFF3049019812F018FFBDF83630D0
S315080013AC194600230A22019812F01DFF2D490198AF
S315080013BC12F00CFFBDF83830194600230A220198A2
S315080013CC12F011FF2449019812F000FF0F9900231F
S315080013DC0A22019812F007FF1F49019812F0F6FE2F
S315080013EC109900230A22019812F0FDFE1A49019859
S315080013FC12F0ECFE119900230A22019812F0F3FE62
S3150800140C1849019812F0E2FE129900230A22019853
S3150800141C12F0E9FE1049019812F0D8FE1399002330
S3150800142C0A22019812F0DFFE0F49019812F0CEFE3F
S3150800143C2A9B01332A932A9A269B9A42FFF605AFD2
S3150800144C15F01CFA0949019812F0C0FE00BF2DB020
S3150800145C5DF804FBD4B00208C4B00208D8B0020880
S3150800146CDCB00208F8B00208FCB0020808B10208A1
S3150800147C00B585B00390029101920398FFF7C0FD61
S3150800148C00BF05B05DF804FB00B585B00190864930
S3150800149C019812F09BFE8549019812F097FE844933
S315080014AC019812F093FE8349019812F08FFE824937
S315080014BC019812F08BFE8149019812F087FE80493B
S315080014CC019812F083FE7F49019812F07FFE7B4942
S315080014DC019812F07BFE15F0C5F97B49019812F0BC
S315080014EC75FE16F021FA0346194600230A220198BE
S315080014FC12F079FE7549019812F068FE744B1B6A56
S3150800150C194600230A22019812F06DFE6F490198BC
S3150800151C12F05CFE16F0ACFE014600230A22019876
S3150800152C12F061FE6B49019812F050FE16F09AFE05
S3150800153C0346194600231022019812F054FE5F49FF
S3150800154C019812F043FE6449019812F03FFE634974
S3150800155C019812F03BFE6249019812F037FE614978
S3150800156C019812F033FE6049019812F02FFE5F497C
S3150800157C019812F02BFE5E49019812F027FE5D4980
S3150800158C019812F023FE5C49019812F01FFE504B8D
S3150800159CDB6803937AE05249019812F017FE574913
S315080015AC019812F013FE5649019812F00FFE039992
S315080015BC00231022019812F016FE5249019812F0D7
S315080015CC05FE4E49019812F001FE039816F0ECF947
S315080015DC014600230A22019812F005FE4949019892
S315080015EC12F0F4FD4849019812F0F0FD039816F034
S315080015FC69F903461946019812F0E8FD4149019824
S3150800160C12F0E4FD3D49019812F0E0FD039814F040
S3150800161CC9FF014600230A22019812F0E4FD394954
S3150800162C019812F0D3FD3549019812F0CFFD0398B5
S3150800163C14F014FE014600230A22019812F0D3FD79
S3150800164C3249019812F0C2FD039814F0B5FD014613
S3150800165C00230A22019812F0C6FD1E49019812F0C1
S3150800166CB5FD039814F056FD0346194600231022BF
S3150800167C019812F0B8FD2349019812F0A7FD1E49EE
S3150800168C019812F0A3FD039B1B680393039B002B85
S3150800169C81D115F0F3F81E49019812F097FD00BF99
S315080016AC05B05DF804FB00BF14B1020830AF0208A0
S315080016BC2CB1020840B1020850B1020864AF020806
S315080016CC6CAF020870B1020888AF02089CAF02081A
S315080016DC38C3012080B1020884B10208F8AF0208A9
S315080016EC00B002089CB10208A8B10208BCB10208F5
S315080016FCD0B10208ECB1020800B2020808B202081E
S3150800170C10B2020814B202081CB20208F8B0020899
S3150800171C08B1020800B585B00390029101920398AE
S3150800172CFFF7B2FE00BF05B05DF804FB00B58BB041
S3150800173C039002910192002002F014F8099005AB6F
S3150800174C10220999184609F0C3FB05AB19460398EC
S3150800175C12F03CFD00BF0BB05DF804FB00B587B07A
S3150800176C039002910192019B002B07D10E4B19682D
S3150800177C00230A22039812F036FD10E0019817F0A0
S3150800178C9CFD0590059B642B01DD64230593059B45
S3150800179C002B01DA00230593059B034A136000BF4F
S315080017AC07B05DF804FB00BFE400002000B585B067
S315080017BC039002910192019B002B04D106490398D0
S315080017CC12F004FD04E00C2201990348FFF7A4FB70
S315080017DC00BF05B05DF804FBDC46012000B585B0FA
S315080017EC039002910192019B002B04D106490398A0
S315080017FC12F0ECFC04E00C2201990348FFF78CFB71
S3150800180C00BF05B05DF804FBD046012000B585B0D5
S3150800181C0390029101920093019B002B13D1144A59
S3150800182C009B13441B78012B04D11249039812F020
S3150800183CCDFC18E01049039812F0C8FC009B18461A
S3150800184C18F06CFA0FE00D4901981FF0E3FE0346F9
S3150800185C002B08D10A4A009B134401221A70009BDC
S3150800186C184618F04DFA00BF05B05DF804FB00BF2A
S3150800187CC046012034B202083CB2020840B2020843
S3150800188CC846012000B585B0039002910192002349
S3150800189C019A02990398FFF7B9FF00BF05B05DF8E6
S315080018AC04FB00B585B00390029101920123019ABD
S315080018BC02990398FFF7AAFF00BF05B05DF804FB71
S315080018CC00B585B00390029101920223019A029900
S315080018DC0398FFF79BFF00BF05B05DF804FB00B546
S315080018EC85B00390029101920323019A02990398F9
S315080018FCFFF78CFF00BF05B05DF804FB00B585B09B
S3150800190C0390029101920423019A02990398FFF716
S3150800191C7DFF00BF05B05DF804FB00B585B00390EC
S3150800192C029101920523019A02990398FFF76EFF1B
S3150800193C00BF05B05DF804FB00B585B003900291B5
S3150800194C01920623019A02990398FFF75FFF00BFDD
S3150800195C05B05DF804FB00B585B0039002910192C1
S3150800196C0723019A02990398FFF750FF00BF05B0A9
S3150800197C5DF804FB86B0039002910192002305934F
S3150800198C10E00C4A059B134419780B4A059B134423
S3150800199C0A461A70074A059B134400221A70059BBF
S315080019AC01330593059B072BEBD900BF00BF06B087
S315080019BC704700BFC8460120C046012000B585B057
S315080019CC0390029101922449039812F0FFFB2349D4
S315080019DC039812F0FBFB2249039812F0F7FB2149F6
S315080019EC039812F0F3FB2049039812F0EFFB1F49FA
S315080019FC039812F0EBFB1E49039812F0E7FB1D49FE
S31508001A0C039812F0E3FB1C49039812F0DFFB1B4901
S31508001A1C039812F0DBFB1A49039812F0D7FB194905
S31508001A2C039812F0D3FB1849039812F0CFFB174909
S31508001A3C039812F0CBFB1649039812F0C7FB15490D
S31508001A4C039812F0C3FB1449039812F0BFFB00BFAE
S31508001A5C05B05DF804FB00BF44B2020858B2020890
S31508001A6C80B20208B8B20208F4B202082CB3020813
S31508001A7C6CB30208A4B30208D8B30208E0B3020890
S31508001A8C10B4020844B402087CB40208B8B40208BC
S31508001A9CECB4020820B5020864AF020800B597B08A
S31508001AAC039002912C49039800F00EFD0023019334
S31508001ABC00230093002300220021029812F014FB45
S31508001ACC1590002301930023009300230022012183
S31508001ADC029812F009FB0246159B13431593159BA6
S31508001AEC002B2ED14023019305AB00930023002233
S31508001AFC0021029812F0C6FA1849039812F066FBF0
S31508001B0C05AB1946039812F061FB1549039812F0B8
S31508001B1C5DFB4023019305AB0093002300220121B2
S31508001B2C029812F0AFFA0F49039812F04FFB05AB67
S31508001B3C1946039812F04AFB0949039812F046FB1A
S31508001B4C03E00949039812F041FB039800F0EAFCFC
S31508001B5C00BF17B05DF804FB58B502086CB502084F
S31508001B6C80B5020888B5020898B5020800B58BB08E
S31508001B7C039002912F49039800F0A6FC05AB01933C
S31508001B8C07AB0093002300220021029812F0ACFA4E
S31508001B9C0990029812F092F90890089B591E002396
S31508001BAC019306AB009300230022029812F09CFACC
S31508001BBC0246099B13430993099B002B2FD11E49F7
S31508001BCC039812F003FB079B059A1946039812F023
S31508001BDCA0FA069B1B78312B1CD11849039812F0D6
S31508001BECF5FA1749039812F0F1FA079B059A194664
S31508001BFC039812F08EFA1349039812F0E7FA079B2A
S31508001C0C059A1946039812F084FA0F49039812F0AC
S31508001C1CDDFA08E00D49039812F0D8FA03E00C49EE
S31508001C2C039812F0D3FA039800F07CFC00BF0BB0B3
S31508001C3C5DF804FB58B50208A4B50208B0B502084D
S31508001C4CC4B50208D0B50208DCB50208E8B5020826
S31508001C5C00B6020800B585B00190114B1B6A0393B8
S31508001C6C1049019812F0B2FA0F49019812F0AEFA1F
S31508001C7C00230A220399019812F0B5FA0B49019828
S31508001C8C12F0A4FA0A49019812F0A0FA019812F077
S31508001C9CBBFA0290029B184605B05DF804FB00BF20
S31508001CAC38C3012018B6020820B6020830B6020856
S31508001CBC34B6020800B585B00190009101230D4A8F
S31508001CCC0021019812F01CFD0B49019812F07EFABE
S31508001CDC0198FFF7BFFF0390039B002B04D14FF429
S31508001CECFA7015F0B3FDF3E700BF00BF05B05DF859
S31508001CFC04FB00BF38B602084CB6020800B585B01E
S31508001D0C01900A49019812F061FA0198FFF7BCFB99
S31508001D1C0749019812F05AFA019812F075FA0390CD
S31508001D2C039B184605B05DF804FB00BF18B60208FD
S31508001D3C34B6020800B585B00190009101230D4A0E
S31508001D4C0021019812F0DCFC0B49019812F03EFABE
S31508001D5C0198FFF7D3FF0390039B002B04D14FF494
S31508001D6CFA7015F073FDF3E700BF00BF05B05DF818
S31508001D7C04FB00BF38B602084CB6020800B585B09D
S31508001D8C01900A49019812F021FA0198FFF738F9DF
S31508001D9C0749019812F01AFA019812F035FA0390CD
S31508001DAC039B184605B05DF804FB00BF18B602087D
S31508001DBC34B6020800B585B00190009101230D4A8E
S31508001DCC0021019812F09CFC0B49019812F0FEF9BF
S31508001DDC0198FFF7D3FF0390039B002B04D14FF414
S31508001DECFA7015F033FDF3E700BF00BF05B05DF8D8
S31508001DFC04FB00BF38B602084CB6020800B585B01D
S31508001E0C039002910192019B002B14D1002004F03F
S31508001E1C37FC0346DAB20D4B1A700C4B1B78002BA9
S31508001E2C04D00B49039812F0D1F90BE00949039831
S31508001E3C12F0CCF906E0019817F03FFA0346DAB22D
S31508001E4C024B1A7000BF05B05DF804FBE84601208A
S31508001E5C34B202083CB2020800B585B00390029170
S31508001E6C0192019B002B14D1002004F009FC0346B7
S31508001E7CDAB20D4B1A700C4B1B78002B04D10B499C
S31508001E8C039812F0A3F90BE00949039812F09EF98E
S31508001E9C06E0019817F011FA0346DAB2024B1A70EB
S31508001EAC00BF05B05DF804FBE846012034B2020811
S31508001EBC3CB2020800B587B00390029101920093D8
S31508001ECC019B002B1BD1002001F04CFC0346214A38
S31508001EDC1360009BDB004FF07F42DA401D4B1B68FA
S31508001EEC1A40009BC3F10303DB0022FA03F30493A5
S31508001EFC00230A220499039812F075F926E0019832
S31508001F0C17F0DBF90590059BFF2B01DDFF230593E5
S31508001F1C059B002B01DA00230593009BDB004FF091
S31508001F2C7F4222FA03F3DA430A4B1B681340094A29
S31508001F3C1360009BC3F10303DB00059A02FA03F353
S31508001F4C1A46044B1B681343024A136000BF07B0BA
S31508001F5C5DF804FBEC46012000B587B003900291AE
S31508001F6C01920093019B002B1BD104AB224A194604
S31508001F7C002001F08FFB009BDB004FF07F42DA401C
S31508001F8C1D4B1B681A40009BC3F10303DB0022FAA6
S31508001F9C03F30493049900230A22039812F023F9F5
S31508001FAC26E0019817F089F90590059BFF2B01DDB2
S31508001FBCFF230593059B002B01DA00230593009B51
S31508001FCCDB004FF07F4222FA03F3DA430A4B1B6815
S31508001FDC1340094A1360009BC3F10303DB00059AFF
S31508001FEC02FA03F31A46044B1B681343024A13609E
S31508001FFC00BF07B05DF804FBF046012000B587B0BA
S3150800200C0390029101920093019B002B1BD1002097
S3150800201C01F08EFB0346214A1360009BDB004FF050
S3150800202C7F42DA401D4B1B681A40009BC3F1030321
S3150800203CDB0022FA03F3049300230A22049903987B
S3150800204C12F0D1F826E0019817F037F90590059BA0
S3150800205CFF2B01DDFF230593059B002B01DA0023DB
S3150800206C0593009BDB004FF07F4222FA03F3DA4319
S3150800207C0A4B1B681340094A1360009BC3F1030300
S3150800208CDB00059A02FA03F31A46044B1B68134342
S3150800209C024A136000BF07B05DF804FBF446012042
S315080020AC00B585B00390029101920023019A02991A
S315080020BC0398FFF7FFFE00BF05B05DF804FB00B5FB
S315080020CC85B00390029101920123019A0299039813
S315080020DCFFF7F0FE00BF05B05DF804FB00B585B050
S315080020EC0390029101920223019A02990398FFF731
S315080020FCE1FE00BF05B05DF804FB00B585B00390A2
S3150800210C029101920323019A02990398FFF7D2FED2
S3150800211C00BF05B05DF804FB00B585B003900291CD
S3150800212C01920023019A02990398FFF715FF00BF45
S3150800213C05B05DF804FB00B585B0039002910192D9
S3150800214C0123019A02990398FFF706FF00BF05B011
S3150800215C5DF804FB00B585B0039002910192022349
S3150800216C019A02990398FFF7F7FE00BF05B05DF8D0
S3150800217C04FB00B585B00390029101920323019AE2
S3150800218C02990398FFF7E8FE00BF05B05DF804FB5B
S3150800219C00B585B00390029101920023019A029929
S315080021AC0398FFF72BFF00BF05B05DF804FB00B5DD
S315080021BC85B00390029101920123019A0299039822
S315080021CCFFF71CFF00BF05B05DF804FB00B585B032
S315080021DC0390029101920223019A02990398FFF740
S315080021EC0DFF00BF05B05DF804FB00B585B0039084
S315080021FC029101920323019A02990398FFF7FEFEB6
S3150800220C00BF05B05DF804FB00B585B003900291DC
S3150800221C0192164B1B78002B0CD0002004F030FAD8
S3150800222C0346002B1DD1002300221149002004F07F
S3150800223C95F916E0002004F023FA0346002B02D089
S3150800224C002004F0D3F90B4B1B681946002001F04B
S3150800225C53FA094B1B68094A12681146184601F0CD
S3150800226C0CFA00BF05B05DF804FB00BFE846012078
S3150800227C5CB60208F4460120EC460120F046012023
S3150800228C00B5AFB00390029101920093009B002B0E
S3150800229C05D00DAB802200991846FEF73DFE309B03
S315080022AC002B05D005AB202230991846FEF734FED4
S315080022BC384A0021029812F00BFA3749029811F0A5
S315080022CC85FF0199029811F081FF3449029811F0A3
S315080022DC7DFF3349029811F079FF3199029811F074
S315080022EC75FF2E49029811F071FF009B002B0CD03C
S315080022FC2C49029811F06AFF0DAB1946029811F099
S3150800230C65FF2649029811F061FF309B002B08D017
S3150800231C2549029811F05AFF05AB1946029811F097
S3150800232C55FF224B1B78002B02D1329B002B06D073
S3150800233C309B002B03D01949029811F047FF1B4B11
S3150800234C1B78002B02D1329B002B03D0184902981C
S3150800235C11F03CFF329B002B0FD0329B132B28BF5E
S3150800236C13232D932D9B1A461049039812F084FAC1
S3150800237C0E4A2D9B134400221A700C4B1B78002B0B
S3150800238C03D00A49029811F021FF002318462FB0F2
S3150800239C5DF804FB64B6020878B6020888B602082B
S315080023AC8CB602089CB60208ACB602080447012093
S315080023BCBCB6020884B00023ADF80E300023ADF885
S315080023CC0C300023ADF80A300123ADF80830012390
S315080023DCADF806301D23ADF80430BDF80E305B0899
S315080023EC9BB21A46BDF80C305B011A44BDF80A308C
S315080023FCDB0213440093BDF80820BDF806305B01D8
S3150800240C1A44BDF804305B0213441B04009A1343A8
S3150800241C0093009B184604B07047000000B585B0C1
S3150800242C019000912049019811F07BFD0346039316
S3150800243C039B002B0CBF01230023DBB21A46009B1F
S3150800244C1A731A49019811F06CFD03460393039B02
S3150800245C002B05D01649019811F063FD034603932A
S3150800246C039B002B0CBF01230023DBB21A46009BEF
S3150800247C5A73FFF79FFF0246009B5A60009B1B7B13
S3150800248C002B03D1009B5B7B002B05D0FFF792FF3B
S3150800249C0246009B9A6003E0009B064A9A6000BFBE
S315080024AC00BF05B05DF804FBC8B60208D0B6020832
S315080024BCD8B60208000021EE84B00390029101926E
S315080024CC00BF04B07047000000B583B001900091BE
S315080024DC0F49019811F07AFE0099019811F076FED1
S315080024EC0C49019811F072FE0B49019811F06EFE19
S315080024FC0099019811F06AFE0849019811F066FED8
S3150800250C0749019811F062FE00BF03B05DF804FBA1
S3150800251C28BD02084CBD020858BD020898BD020821
S3150800252CA4BD020800B583B001900C49019811F0BE
S3150800253C4DFE0B49019811F049FE0A49019811F014
S3150800254C45FE0949019811F041FE0849019811F018
S3150800255C3DFE00BF03B05DF804FB00BFBCBD02081E
S3150800256CCCBD020808BE02083CBE020894BE02088E
S3150800257C08B50B4812F07CF80A4A0B490B4812F0BE
S3150800258CF7F801220A490B4812F07CF80A490B485D
S3150800259C12F08CF800210A4812F0FEFA00BF08BDAA
S315080025AC29240008DCBE02088D220008F846012002
S315080025BCA10E0008184701201D0E0008204701200F
S315080025CCED0E000800B589B002AB1822002118469A
S315080025DC1FF0DAF84FF4C0630093184B002202215F
S315080025EC00201BF041F80346DBB28DF809300023B6
S315080025FC009300230022022101201BF035F8034624
S3150800260CDBB28DF808300023009300230522032142
S3150800261C01201BF029F80346DBB28DF80A30084B6B
S3150800262C0393084B1B680693074B079302AB184694
S3150800263C19F0CAFF00BF09B05DF804FB2847012052
S3150800264CA801002028AD012068C1020800B583B096
S3150800265C01900091009A0449012008F057FC00BF2C
S3150800266C03B05DF804FB00BF98C0020800B589B03A
S3150800267C039002914E4B1B68039A9A4240F0938042
S3150800268C029B002B72D01CF031FA03468DF81F30D2
S3150800269C9DF81F301A02474B134306936FF0070336
S315080026AC0593454A039B1360434A069B5360424A6B
S315080026BC059B9360414A069B1360414A039B136032
S315080026CC069B01333E4A53603D4A059B93603C4B3F
S315080026DC0422DA603B4A039B1360384A394B5A602A
S315080026EC384B01229A601022002137481FF04CF80B
S315080026FC354B364A1A60344B3C225A60324B344AB4
S3150800270CDA60314B01229A60324B0093324B2A4ADB
S3150800271C3249334802F09AF82E4B0093314B284A2B
S3150800272C3149324802F092F82A4B0093304B254A2D
S3150800273C3049314802F08AF81D4B1B681A46254B5E
S3150800274C00932E4B2E492F4802F080F8214B00930C
S3150800275C2D4B1D4A2D492E4802F078F81D4B009337
S3150800276C2C4B194A2C492D4802F070F8029B002B69
S3150800277C19D10F4B1B681A46164B0093284B29493F
S3150800278C294802F063F8134B0093284B002228497A
S3150800279C284802F05BF80F4B0093274B0022274979
S315080027AC274802F053F800BF09B05DF804FB00BFD8
S315080027BC28AD012001007F64FCAD0120F8AD012095
S315080027CC08AE012018AE012034AD0120A0C00208C5
S315080027DCE800002059260008A8C00208613600083F
S315080027EC44AD0120B8C002085976000858AD01203E
S315080027FCCCC00208597700086CAD0120E4C0020869
S3150800280C8D78000880AD0120F4C00208618B0008A1
S3150800281C94AD01200CC10208A18C0008A8AD0120BA
S3150800282C20C1020829790008BCAD012030C1020874
S3150800283C0D8C0008D0AD012044C10208ED8C0008AF
S3150800284CE4AD012000B583B00190019804F092FF25
S3150800285C1AF0D4FF06481CF031F919F01DFDFFF7E4
S3150800286CB1FE1BF035F80023184603B05DF804FBDF
S3150800287C58C1020800B585B001900B468DF8033097
S3150800288C13468DF802309DF80230002B14BF012335
S3150800289C0023DBB2039303990198FFF7E7FE00BF09
S315080028AC05B05DF804FB000000B583B04FF4C041D9
S315080028BC254800F0C1FC254807F036F90190019B24
S315080028CC2349184601F0EAFD2249234801F0D6F9B6
S315080028DC019B224A136040F2DC530093019B009A39
S315080028EC1146184601F03CFC4FF480710C2001F09F
S315080028FC13F8009B10331946092001F00DF8009BBC
S3150800290CA3F1280213465B0013441846009BA3F157
S3150800291C280213465B001344194601F02FF80820C9
S3150800292C0AF07AFB4FF0FF3008F0C4FA0C4808F0AE
S3150800293CB3FA0AF0B9FD0DF017FD07F0F9FB00BF65
S3150800294C03B05DF804FB00BF284D012060FF0208A8
S3150800295C51280008812800082CAD012028AD01203B
S3150800296C01400A027047704700B583B0019001997F
S3150800297C002016F071FC00BF03B05DF804FB88B0AC
S3150800298C039002910192012307930A23069307E009
S3150800299C019B013B0193079B069A02FB03F30793E2
S315080029AC029A079BB2FBF3F3069A9A42F0D9019B5B
S315080029BC012BEDDC029A079BB2FBF3F30593059BFF
S315080029CC079A02FB03F3029AD31A0293059BDAB20F
S315080029DC039B591C03913032D2B21A70079A069B84
S315080029ECB2FBF3F30793079B002BE3D1039B00225F
S315080029FC1A70039B184608B07047000000B589B0DA
S31508002A0C6B46069316F0ACFA03460593059B264AC5
S31508002A1C82FB03129211DB17D31A00221946069869
S31508002A2CFFF7ADFF0690069B5A1C06923A221A70BF
S31508002A3C059B1D4A82FB03129111DA178A1A4FF469
S31508002A4C7A7101FB02F29A1A134603221946069862
S31508002A5CFFF795FF0690069B5A1C069220221A70C1
S31508002A6C069B5A1C069200221A706B461846FFF7EC
S31508002A7C7BFF0E4B93F84530002B02D00C4B07937B
S31508002A8C05E00A4B9B68184614F01CFF0790079B39
S31508002A9C002B05D00798FFF767FF0648FFF764FF7A
S31508002AAC00BF09B05DF804FBD34D621038C3012092
S31508002ABC74C1020880C1020800B583B00190019A5E
S31508002ACC07494FF0004019F0FDFE16F021FA019B5C
S31508002ADC002BFCD100BF00BF03B05DF804FB00BFA0
S31508002AEC84C1020800B583B0019016F011FAFFF7FD
S31508002AFC85FF0198FFF738FF0448FFF735FF16F0F6
S31508002B0CE9F900BF03B05DF804FB00BF90C10208E9
S31508002B1C00B583B0019016F0FBF9FFF76FFF074875
S31508002B2CFFF722FF0198FFF71FFF0548FFF71CFF69
S31508002B3C16F0D0F900BF03B05DF804FB94C1020887
S31508002B4C90C1020800B583B00190FE2201994D2070
S31508002B5C17F060FA00BF03B05DF804FB08B5884BA4
S31508002B6C1B68874A43F087031360864B1B6823F060
S31508002B7CC003844A43F080031360834B1B68824A64
S31508002B8C23F008031360814B1B68804A43F0C0038B
S31508002B9C13607F4B1B687E4A23F0C00313607D4B82
S31508002BAC1B6823F470437B4A43F4204313607A4B27
S31508002BBC1B6823F00F03784A43F00A031360774B1C
S31508002BCC1B68764A23F003031360754B1B68744A1B
S31508002BDC43F00F031360734B1B68724A23F00F0301
S31508002BEC1360714B1B6823F0FF036F4A43F0AA036B
S31508002BFC1360694B1B6823F07F63674A43F02A63AB
S31508002C0C1360664B1B68654A23F470531360644B58
S31508002C1C1B68634A43F07F631360624B1B68614A07
S31508002C2C23F07F631360614B1B68614A1A405F4946
S31508002C3C604B13430B60584B1B6823F44063564A8E
S31508002C4C43F400631360554B1B68544A23F0200366
S31508002C5C1360534B1B68524A43F440631360514B41
S31508002C6C1B68504A23F4406313604F4B1B6823F4CC
S31508002C7C70034D4A43F4200313604F4B1B6823F033
S31508002C8C03034D4A43F0020313604C4B1B684B4A33
S31508002C9C43F0030313604A4B1B6823F00F03484A9F
S31508002CAC43F00A031360444B1B6823F03003424A73
S31508002CBC43F020031360414B1B68404A43F0300332
S31508002CCC13603F4B1B6823F470633D4A43F420633F
S31508002CDC13603C4B1B6823F440733A4A43F4007365
S31508002CEC1360394B1B68384A43F440731360374BEF
S31508002CFC1B6823F47023354A43F420231360214BB5
S31508002D0C1B6823F440631F4A43F4006313601F4B8C
S31508002D1C1B681E4A43F4406313601E4B1B6823F45E
S31508002D2C70031C4A43F420031360154B1B68144AA2
S31508002D3C43F0C04313600A2016F008F9244B1B68AD
S31508002D4C234A43F0005313600A2016F0FFF8204B71
S31508002D5C1B681F4A23F0005313600A2016F0F6F876
S31508002D6C1C481BF0B9FA4FF480511B481BF0C4FEE3
S31508002D7C1A4A1B491B481BF093FE00BF08BD00BF2F
S31508002D8C30380240000002400400024008000240AD
S31508002D9C0C000240200002400004024004040240D9
S31508002DAC080402400C040240200402402404024099
S31508002DBCFF0000FF00AAAA0000080240080802400B
S31508002DCC20080240001C0240081C0240201C02403D
S31508002DDC103802409401030824AE0120E18E010844
S31508002DEC1D8F0108512B000800B583B0019001987E
S31508002DFCFFF762FE00BF03B05DF804FB00B583B0B5
S31508002E0C01900199002016F027FA0449002016F0C3
S31508002E1C23FA00BF03B05DF804FB00BFA8C1020883
S31508002E2C00B583B001900199002016F015FA0449F3
S31508002E3C002016F011FA00BF03B05DF804FB00BFC2
S31508002E4CA8C1020800B587B0524B5B680593059B71
S31508002E5C883B0593002304938FE0059B88330593E1
S31508002E6C059B93F88630002B40F08480059B9B6964
S31508002E7C5B690498474AD2F8842115219847059B23
S31508002E8C76330193019B1B68002B07D0059B9B6926
S31508002E9C5B690498059A76320F219847059B9B69BE
S31508002EAC1B68049A104698470390039B6E2B60D0B8
S31508002EBC059B012283F88620059B76330621184646
S31508002ECC01F0B4FB0346002B0DD0049B184601F009
S31508002EDCF1F80346002B06D1059B7633049A2E4946
S31508002EEC012008F013F8049B184601F0FFF8034676
S31508002EFC0293059BB3F86C301A46029B1343029354
S31508002F0C059BB3F86E30DB43029A13400293059B7C
S31508002F1CB3F870301A46029B13430293029B9AB27B
S31508002F2C059BA3F86C20059BDB68059A9A4205D08D
S31508002F3C059BDB681946059801F074FA059B93F80E
S31508002F4C763003F00103002B02D01448FFF74CFF30
S31508002F5C059BDB6D002B03D11149012007F0D6FF29
S31508002F6C049B184608F00EFC049B184606F062FCF7
S31508002F7C00E000BF049B01330493064B93F892318F
S31508002F8C1A46049B9342FFF668AF00BF07B05DF87C
S31508002F9C04FB00BF4CBE0120C8C10208F4C10208DC
S31508002FAC1CC2020800B583B0224B93F89731002B4C
S31508002FBC05D0204B002283F89721FFF743FF1D4BC2
S31508002FCC5B6801930023009329E0019B93F88630F4
S31508002FDC002B1ED0019B9B691B69002B04D0019BFF
S31508002FEC9B691B6900989847019B93F87E30002BC8
S31508002FFC0FD01149082007F0C7FF019B002283F860
S3150800300C7E20019B9B691B6800989847009806F0E0
S3150800301C11FC019B88330193009B01330093054BEC
S3150800302C93F892311A46009B9342CED300BF03B055
S3150800303C5DF804FB4CBE012030C2020800B585B011
S3150800304C1A4B5B6803930023029324E0039B9B694A
S3150800305C9B69002B19D015F091FD039B9B6E019370
S3150800306C019B002B0FD0019800F050FE0346002B55
S3150800307C09D0039B00229A66039B9B690122194679
S3150800308C039800F0E9FF15F097FD039B883303932B
S3150800309C029B01330293054B93F892311A46029B15
S315080030AC9342D3D300BF05B05DF804FB4CBE012098
S315080030BC00B587B015F09EFD034600934FF47A735E
S315080030CC01931C4B03931C4B5B6F02932AE0039BE7
S315080030DC9A68009BD31A0493049B002B16DC039B5B
S315080030EC1B689847039B5B680493039B9B68049A2D
S315080030FC13440593059A009BD31A002B03DC009AFC
S3150800310C049B13440593039B059A9A60019A049BA6
S3150800311C9A4201DD049B0193039B0C330393029B98
S3150800312C013B0293029B002BD1D1019B184607B099
S3150800313C5DF804FBC4BE01204CBE012000B587B067
S3150800314C0390029101920B4B5B6905930AE0059B70
S3150800315C1B68029AD1B2019AD2B203989847059B7A
S3150800316C5B680593059B002BF1D100BF07B05DF892
S3150800317C04FB00BF58C0012000B585B00190009132
S3150800318C194B93F892311A46019B934222D2164B4D
S3150800319C5968019A13461B011344DB000B4403932D
S315080031AC039B93F87D301A46009B934217D0009BDD
S315080031BCDAB2039B83F87D20009B002B01D115F016
S315080031CC3FFD039B93F87C30009A19460198FFF74C
S315080031DCB5FF04E0019A0549082007F0D5FE00BFA3
S315080031EC05B05DF804FB00BF4CBE012044C20208C2
S315080031FC82B001900091019B009A1A60044B5A699F
S3150800320C019B5A60024A019B536100BF02B070478A
S3150800321C58C0012000B583B00190009115F020FD2F
S3150800322C00220099019808F057F915F021FD00BF06
S3150800323C03B05DF804FB000000B583B00190009163
S3150800324C074A019B1362064A009B536201220099A6
S3150800325C019808F041F900BF03B05DF804FB00BF04
S3150800326C24BE012000B587B001904FF0FF330593BB
S3150800327C019B5B680493049B93F87C30002B04D069
S3150800328C049B93F87D30002B0CD1019808F0DEFCDA
S3150800329C049B9B6A002B52D0049B9B6A9A6A013248
S315080032AC9A624CE0019B5B68DB680393264B1B68B0
S315080032BC0133254A1360049B9B6A002B09D0049B97
S315080032CC9B6ADA69019B1B8A1946049B9B6A0A440A
S315080032DCDA61049B5B695B69019898470346002B86
S315080032EC09D0049B9B6A002B0ED0049B9B6A1A6A16
S315080032FC01321A6208E0049B9B6A002B04D0049BDB
S3150800330C9B6A5A6A01325A62039B403301991846E2
S3150800331C06F0B2FC039B9B695B68039A92F87F20C4
S3150800332C104698470590059B002B08D0049B9B6A72
S3150800333C002B04D0049B9B6ADA6A0132DA62059B7D
S3150800334C184607B05DF804FBE4BF012000B585B04C
S3150800335C019000910F4B5968009A13461B011344B0
S3150800336CDB000B444033184606F002FD0290029B24
S3150800337C002B07D0029BDA68019B1A60029B1B8AFA
S3150800338C039301E000230393039B184605B05DF8ED
S3150800339C04FB00BF4CBE012000B585B001900A4B5A
S315080033AC5968019A13461B011344DB000B4440333E
S315080033BC184606F009FD0390039808F0A1FB00BF18
S315080033CC05B05DF804FB00BF4CBE012000B583B008
S315080033DC019015F0D3FB0198FFF7DEFF15F0ECFB17
S315080033EC054B93F89531002B01D015F029FC00BF3D
S315080033FC03B05DF804FB00BF4CBE012000B585B0D8
S3150800340C01900091002303930EE02349039A134677
S3150800341C5B0013449B000B4478331B68019A9A4251
S3150800342C36D0039B013303931B4B5B6F1A46039BE6
S3150800343C9342EADB184B5B6F092B02D91748FFF747
S3150800344CD3FC15F0D7FB034618461349039A1346C3
S3150800345C5B0013449B000B44803318600E49039A97
S3150800346C13465B0013449B000B447833019A1A608D
S3150800347C0949039A13465B0013449B000B447C339F
S3150800348C009A1A60044B5B6F0133034A536700E0DA
S3150800349C00BF05B05DF804FB4CBE01209CC20208B7
S315080034AC00B589B00390029101921F4B5968039A93
S315080034BC13461B011344DB000B440593059B76331B
S315080034CC019A029918461EF035F9174B5B68079353
S315080034DC0023069311E0079BDB68059A9A4206D1EE
S315080034EC079B7633019A029918461EF023F9079B17
S315080034FC88330793069B013306930B4B93F892314B
S3150800350C1A46069B9342E6D3074B93F89431002B45
S3150800351C06D0059BDB6893F87F30184606F08AF9C7
S3150800352C00BF09B05DF804FB4CBE012000B585B0A0
S3150800353C039002910192019B062B02D00748FFF7D4
S3150800354C53FC15F01BFB019A02990398FFF7A8FF89
S3150800355C15F032FB00BF05B05DF804FBACC20208DF
S3150800356C00B585B0039002910192019B062B01D9F7
S3150800357C0623019315F002FB094B5968039A134667
S3150800358C1B011344DB000B447633019A1946029847
S3150800359C1EF0D0F815F010FB00BF05B05DF804FB63
S315080035AC4CBE012084B003468DF807300A4B596887
S315080035BC9DF8072013461B011344DB000B440393A9
S315080035CC039B0022DA62039B00221A63039B0022E8
S315080035DC5A6300BF04B070474CBE012000B587B0D3
S315080035EC0346029101928DF80F3002980DF066FB96
S315080035FC029001980DF062FB0190144B59689DF8E6
S3150800360C0F2013461B011344DB000B44049315F0DF
S3150800361C27FB049B029ADA62049B019A1A630C4BE9
S3150800362C5B68059309E0059B1B689DF80F00019ADA
S3150800363C02999847059B5B680593059B002BF2D16D
S3150800364C15F016FB00BF07B05DF804FB4CBE012055
S3150800365C58C0012000B585B00190019B0393039BCC
S3150800366C1B68D8B2039B5968039B9B681A46FFF7DD
S3150800367CB5FF00BF05B05DF804FB00B583B001903B
S3150800368C0091009A01990020FFF7A8FF00BF03B02C
S3150800369C5DF804FB00B587B00346029101928DF8DC
S315080036AC0F30144B59689DF80F2013461B01134411
S315080036BCDB000B44059315F0D3FA029B002B07D0BD
S315080036CC059BDB6A18460DF0F9FA0246029B1A604E
S315080036DC019B002B07D0059B1B6B18460DF0EEFAC9
S315080036EC0246019B1A6015F0C3FA00BF07B05DF8D5
S315080036FC04FB00BF4CBE012000B583B00346009105
S3150800370C8DF8073000980DF0D9FA0090074B5968D8
S3150800371C9DF8072013461B011344DB000B44009A43
S3150800372C5A6300BF03B05DF804FB00BF4CBE012012
S3150800373C00B583B003468DF80730094B59689DF8D8
S3150800374C072013461B011344DB000B445B6B18461E
S3150800375C0DF0B4FA0346184603B05DF804FB00BF37
S3150800376C4CBE012000B583B00190084B5968019AEC
S3150800377C13461B011344DB000B44DB6A18460DF099
S3150800378C9DFA0346184603B05DF804FB4CBE0120AF
S3150800379C00B587B015F064FA3E4BDB69002B1ED0DA
S315080037AC15F0ECF93B4BDB6905933A4B0022DA61D1
S315080037BC15F002FA059B1B680493059B5B68059A32
S315080037CC926810469847059B1B69059AD26811465C
S315080037DC05989847049B0593059B002BEAD12E4B1D
S315080037EC93F89531002B06D02B4B002283F89521A4
S315080037FC294BDB6E9847294806F0CFFA0390039BB2
S3150800380C002B3CD0039B5B680193019B5B695B694E
S3150800381C039898470346002B09D0019B9B6A002BFB
S3150800382C0ED0019B9B6A9A6801329A6008E0019B4C
S3150800383C9B6A002B04D0019B9B6ADA680132DA601A
S3150800384C154B9B6D002B0BD0134B9B6D0398984710
S3150800385C0090009B002B03D0039808F0F7F90DE0B5
S3150800386C019B5B69DB68002B02D10D48FFF7BCFA9C
S3150800387C039B5B685B69DB6803989847AFE700BFF7
S3150800388CFFF716FC029015F0F3F9029B184607B0E1
S3150800389C5DF804FB58C001204CBE012054BF012022
S315080038ACC4C2020800B583B00549012007F02EFBF7
S315080038BCFFF76EFF0190019B184615F0ADF9F7E777
S315080038CCE4C2020800B587B0039002910192029BEC
S315080038DC5B08019A1946039811F06AF90190029B44
S315080038EC03F00103002B12D0029B013B039A1344ED
S315080038FC1B78ADF81630BDF81630019A13440193AF
S3150800390C019B9BB21A46019B1B0C13440193019B0A
S3150800391C184607B05DF804FB00B585B00190009118
S3150800392C144BD3F804315A1C1249C1F804210393D9
S3150800393C039B012B03D91048FFF756FA16E0009A99
S3150800394C0C49039B1E33DB000B445A60019A094948
S3150800395C039B1E3341F83320064BD3F80021009BFA
S3150800396C9A4203D2009B034AC2F8003105B05DF8AF
S3150800397C04FB00BF4CBE0120FCC2020882B00190B9
S3150800398C0091044A019B9362024A009BD36200BFD2
S3150800399C02B07047E8C1012000B58BB003900291C4
S315080039AC0192019B002B02D1234B09932BE0019B1F
S315080039BC224A934202D1224B099324E0019B214AC5
S315080039CC934202D1204B09931DE0019B1F4A934257
S315080039DC02D11F4B099316E0019B1E4A93420AD942
S315080039EC019B1D4AA2FB03239B0C05A81B4A092114
S315080039FC16F04EF805E005A8019B194A092116F0A0
S31508003A0C47F805AB0993099815F084FC0890029BB6
S31508003A1C013B089A934228BF13460893089A0999BA
S31508003A2C03981DF087FE039A089B134400221A700C
S31508003A3C00BF0BB05DF804FB4CC3020880969800D7
S31508003A4C50C3020800E1F50558C3020800CA9A3BA0
S31508003A5C60C3020840420F0083DE1B4368C302089A
S31508003A6C70C3020810B58EB00390029101927D4B7B
S31508003A7C5968039A13461B011344DB000B4409933C
S31508003A8C099B1B6E0893089B002B01D0089B01937E
S31508003A9C019B002B05D1099B93F88220099B83F87F
S31508003AAC8120019B002B05D0099B93F88420099B48
S31508003ABC83F88320099B5B6E029A9A4205D1099B6F
S31508003ACCDB6D019A9A4200F0C880019B002B13D03B
S31508003ADC099B93F88130002B0ED0099B93F8813003
S31508003AEC013BDAB2099B83F88120099B93F8813054
S31508003AFC002B01D00023B1E0019B002B13D1099BAD
S31508003B0C93F88330002B0ED0099B93F88330013B36
S31508003B1CDAB2099B83F88320099B93F88330002B30
S31508003B2C01D000239AE0099B029A5A66099B019ACE
S31508003B3CDA65019B002B14BF01230023DBB28DF839
S31508003B4C1F309DF81F3019460398FFF715FB099B84
S31508003B5C9B6A002B05D0099B9C6A15F04BF803460B
S31508003B6C236005AB019A09211846FFF715FF029B3E
S31508003B7C002B06D0029B012B01D13B4A02E03B4AA3
S31508003B8C00E03B4A05AB3B494FF4804007F0BEF9D1
S31508003B9C394B1B68002B05D0374B1B68019A0299C9
S31508003BAC03989847344BDB680C9308E00C9B1B680E
S31508003BBC019A0299039898470C9B5B680C930C9B8B
S31508003BCC002BF3D1274B5B680B9300230A9329E050
S31508003BDC0B9B5B691B7E002B1ED10B9A099B9A4289
S31508003BEC1AD00B9BDB68099A9A4215D10B9B029A41
S31508003BFC5A660B9B019ADA659DF81F3019460A9886
S31508003C0CFFF7BAFA0B9B9B6A002B05D00B9B9C6A99
S31508003C1C14F0F0FF034623600B9B88330B930A9B27
S31508003C2C01330A930F4B93F892311A460A9B934227
S31508003C3CCED3114B9B680D930AE00D9B1C689DF81F
S31508003C4C1F30019A02990998A0470D9B5B680D9342
S31508003C5C0D9B002BF1D1012300E0002318460EB072
S31508003C6C10BD00BF4CBE012078C3020884C30208ED
S31508003C7C90C3020898C3020858C0012000B583B047
S31508003C8C0190009114F0ECFF00990198FFF7B0FA37
S31508003C9C14F0EEFF00BF03B05DF804FB00B583B06B
S31508003CAC0190009100990198FFF7A2FA00BF03B0A2
S31508003CBC5DF804FB82B00190054B5968019A1346CE
S31508003CCC1B011344DB000B44DB6D184602B070472E
S31508003CDC4CBE012084B001900B4B5968019A1346CF
S31508003CEC1B011344DB000B440393039BDB6D002B76
S31508003CFC05D0039BDB6A002B01D0012300E00023CF
S31508003D0C184604B0704700BF4CBE012000B585B0FC
S31508003D1C019014F06FFF03460393039A019BD31A81
S31508003D2C002B01DB012300E00023184605B05DF8E3
S31508003D3C04FB000000B589B000230693A04BA14AEA
S31508003D4C1A609F4B93F89431002B40F0318114F094
S31508003D5CE9FE02A81F23009303239B4A062115F0AC
S31508003D6C97FE03230593059B002B08D0059B013B67
S31508003D7C964AD35C8DF80C3000238DF80D3002ABC7
S31508003D8C1A469349012007F0C1F88D4B022283F895
S31508003D9C91218B4B0122A3F88C21894B012283F8A4
S31508003DAC8E21874B402283F88F21854B402283F83E
S31508003DBC9021834B0822A3F87621FEF775FD854BD7
S31508003DCC1B6A002B02D18448FFF70EF87C4B0122A4
S31508003DDC83F893218149012007F098F8804901203E
S31508003DEC07F094F87D49012007F090F802227D49E6
S31508003DFC012007F08BF807F067FC03461A467A4948
S31508003E0C012007F083F87949012007F07FF8002391
S31508003E1C059312E06A4A059B1E3352F83310684A1A
S31508003E2C059B1E33DB0013445B680A467049012068
S31508003E3C07F06CF8059B01330593614BD3F80431F5
S31508003E4C059A9A42E6D36B4B9A6A6A4BDB6A6A49BD
S31508003E5C012007F05BF85A4B93F892311A466749DA
S31508003E6C012007F053F8564B5B680693002305931D
S31508003E7C61E0059A6249012007F048F8069B1B6821
S31508003E8C1A466049012007F041F8069BB3F87430CE
S31508003E9C1A465D49012007F039F8069B7633062148
S31508003EAC184600F0C3FB0346002B07D0069B763357
S31508003EBC1A465649012007F029F806E0069B763380
S31508003ECC1A465349012007F021F8069BDB6A002B9A
S31508003EDC06D0069BDB6A1A464E49012007F016F8EF
S31508003EEC069B5B6B002B06D0069B5B6B1A464A49F6
S31508003EFC012007F00BF80023049313E0069B049AA1
S31508003F0C0E3253F82230002B09D0069B049A0E3237
S31508003F1C53F82230049A4149012006F0F7FF049B16
S31508003F2C01330493049B012BE8D9069B883306932B
S31508003F3C059B01330593224B93F892311A46059B40
S31508003F4C934296D32549012006F0E0FF07F08CFE34
S31508003F5C1B4BD3F8F0301A46194BD3F8F8301344E8
S31508003F6C184607F0E5F814F07BFEFEF76BFF14F025
S31508003F7C7FFE4FF47A712A48FFF740FA64212948E4
S31508003F8CFFF73CFA0E4B012283F8942126490120AF
S31508003F9C06F0BCFF254B1B69079305E0079B1B68BE
S31508003FAC9847079B5B680793079B002BF6D103E0A2
S31508003FBC1F49012006F0E8FF00BF09B05DF804FBB5
S31508003FCC4CBE0120BCC30208D4C30208ACC102080B
S31508003FDCDCC3020824BE012004C4020824C4020857
S31508003FEC6CC40208B4C40208C4C40208E0C40208BB
S31508003FFCF8C40208E8C1012014C5020848C502081D
S3150800400C6CC502088CC502089CC50208ACC502081A
S3150800401CE4C50208F8C5020814C6020838C6020820
S3150800402CB12F00084930000858C6020858C00120AC
S3150800403C70C6020882B001900091019B009A5A60E2
S3150800404C044B1A6D019B1A60024A019B136500BF4B
S3150800405C02B070474CBE012000B585B003900291A2
S3150800406C0192019B002B03D0039B9B6E002B1CD14A
S3150800407C019B002B01D001230193039B93F8852008
S3150800408C019BDBB29A4211D1019BDBB283F001038F
S3150800409CDAB2039B83F88520029B9B69039A92F8F4
S315080040AC7F2001991046984700E000BF05B05DF8DF
S315080040BC04FB000000B585B001900B4B5968019ABA
S315080040CC13461B011344DB000B440393039B9B69A8
S315080040DC5B69039A76320821019898470346184675
S315080040EC05B05DF804FB00BF4CBE012000B585B0D9
S315080040FC01900D4B5968019A13461B011344DB00BA
S3150800410C0B449B695B69002204210198984703902C
S3150800411C039BB3F1FF3F01D100230393039B18467E
S3150800412C05B05DF804FB00BF4CBE012000B583B09A
S3150800413C01900091094B5968019A13461B011344C7
S3150800414CDB000B449B695B69009A1621019898471A
S3150800415C0346184603B05DF804FB00BF4CBE0120AD
S3150800416C84B0019000910C4B5968019A13461B01B7
S3150800417C1344DB000B440393039BB3F874301A46C1
S3150800418C009B934204D2009B9AB2039BA3F874201B
S3150800419C00BF04B0704700BF4CBE012082B001902E
S315080041AC064B5968019A13461B011344DB000B4452
S315080041BCB3F87430184602B0704700BF4CBE0120E5
S315080041CC00B587B00390029101920093304B93F897
S315080041DC923105932E4B93F891311A46059B9342CF
S315080041EC02DB2C48FEF700FE294B5B68002B15D129
S315080041FC274B93F891311A4613461B011344DB00DF
S3150800420C1946254807F03CF90246214B5A60204BC3
S3150800421C5B68002B02D12148FEF7E6FD1C4B59685A
S3150800422C059A13461B011344DB000B440493049BA9
S3150800423C029A9A61049BB3F87430002B04D1019B43
S3150800424C9AB2049BA3F87420049B039A1A60009BE9
S3150800425C9AB2049BA3F87220049B049ADA60049B16
S3150800426C089A5A61049B002283F87C20059BDAB2D3
S3150800427C049B83F87F20064B93F892310133DAB20C
S3150800428C034B83F89221059B184607B05DF804FB8F
S3150800429C4CBE0120D4C6020800C702080CC7020887
S315080042AC024B93F892311846704700BF4CBE01205A
S315080042BC84B003460091ADF80630002303932FE033
S315080042CC394B5968039A13461B011344DB000B44FC
S315080042DC0293029B93F87D30002B1DD0029B93F81A
S315080042EC7C30002B18D0029B1B6B002B14D0BDF80E
S315080042FC063003F00203002B03D0029BDB6A002B6B
S3150800430C0AD0029BDA6A009B5A40029B1B6B13402D
S3150800431C002B02D1029B43E000BF039B013303939E
S3150800432C214B93F892311A46039B9342C8D3002328
S3150800433C03932DE01C4B5968039A13461B0113442F
S3150800434CDB000B440293029B93F87D30002B1BD0A9
S3150800435C029B93F87C30002B16D0BDF8063003F080
S3150800436C0203002B03D0029BDB6A002B0CD0029BAA
S3150800437C5B6B002B01D0029B12E0029B1B6BB3F10B
S3150800438CFF3F02D1029B0BE000BF039B0133039353
S3150800439C054B93F892311A46039B9342CAD30023D2
S315080043AC184604B0704700BF4CBE012084B00346C3
S315080043BCADF806300023039327E0194B5968039A86
S315080043CC13461B011344DB000B440293029B5B69E7
S315080043DC1B68002B15D0BDF8063003F00203002B22
S315080043EC03D0029BDB6A002B0BD0029B93F87D3023
S315080043FC012B07D1029B93F87C30012B02D1029B2F
S3150800440C0BE000BF039B01330393054B93F89231E2
S3150800441C1A46039B9342D0D30023184604B0704720
S3150800442C4CBE012000B583B001900091019805F0AF
S3150800443C89FB0346002B08D1019B03F17600009BF0
S3150800444C7633062219461DF075F9009BB3F86C20D5
S3150800445C019BA3F86C20009BB3F86E20019BA3F874
S3150800446C6E20009BB3F87020019BA3F87020009B6C
S3150800447C93F87D20019B83F87D20019B5B691B7E4D
S3150800448C002B07D1009BDA6D019BDA65009B5A6EEF
S3150800449C019B5A6600BF03B05DF804FB82B001901D
S315080044AC0091064B5968019A13461B011344DB000D
S315080044BC0B44009A5A6000BF02B070474CBE0120EC
S315080044CC00B585B00190154B93F892311A46019BAD
S315080044DC934208D3019A1249022006F055FD6FF053
S315080044EC1A03039314E00D4B5968019A13461B01E2
S315080044FC1344DB000B440293029B5B68002B05D02C
S3150800450C029B5B6801989847039001E0002303938C
S3150800451C039B184605B05DF804FB00BF4CBE012092
S3150800452C44C2020800B585B00190154B93F8923138
S3150800453C1A46019B934208D3019A1249022006F0A7
S3150800454C23FD6FF01A03039314E00D4B5968019A77
S3150800455C13461B011344DB000B440293029B9B6816
S3150800456C002B05D0029B9B6801989847039001E0A5
S3150800457C00230393039B184605B05DF804FB00BFA4
S3150800458C4CBE012044C2020800B585B0164B1B6F01
S3150800459C002B06D0144B1B6F01AA04211046984712
S315080045AC1CE00023019314F025FB039000230293CF
S315080045BC11E0019B5B000193039B03F00103002BA5
S315080045CC03D0019B43F001030193039B5B08039300
S315080045DC029B01330293029B1F2BEAD9019B1846B7
S315080045EC05B05DF804FB00BF4CBE012084B00390F7
S315080045FC029113468DF80730029B002B01D101233B
S3150800460C11E0039B1B789DF807209A4201D00023E2
S3150800461C09E0039B01330393029B013B0293029B24
S3150800462C002BEED10123184604B0704700B583B0B1
S3150800463C01900091002200990198FFF7D7FF0346D5
S3150800464C184603B05DF804FB00B583B001900091E1
S3150800465CFF2200990198FFF7C9FF0346184603B0D5
S3150800466C5DF804FB84B001900023039300230293A6
S3150800467C14E00E4A029B1E33DB0013445B68019A56
S3150800468C9A4208D8094A029B563352F823301A46DE
S3150800469C039B13440393029B01330293029B012B46
S315080046ACE7D9039B184604B0704700BF4CBE0120DF
S315080046BC00B587B0039002910192029B0233012147
S315080046CC184607F00BFA0590059B002B12D0059B94
S315080046DC9B689A1C059BDA60059BDA68019B1A6035
S315080046EC074B5968039A13461B011344DB00CA1877
S315080046FC059B5A60059B184607B05DF804FB00BF7E
S3150800470C4CBE012000B587B00390029101921E4B56
S3150800471C5968039A13461B011344DB000B44059393
S3150800472C059B9B6A002B07D0059B9B6A5968059BC2
S3150800473C9B6A019A0A445A60144B5B680133134A04
S3150800474C5360059BB3F87230ADF81230029B059A8C
S3150800475C5A60029B9A68BDF812301A44029BDA60BA
S3150800476C019B9AB2BDF81230D31A9BB202339AB295
S3150800477C029B1A8200220021029805F0FDF90346D5
S3150800478C184607B05DF804FB4CBE0120E4BF0120B7
S3150800479C00B587B003900291019203230493174B3B
S315080047AC9B6905930CE0059B5B68019A0299039833
S315080047BC98470490049B032B06D1059B1B6805930D
S315080047CC059B002BEFD100E000BF049B032B0ED1F9
S315080047DC029B002B04D00399094805F08DFA03E0D7
S315080047EC0399074805F048FA0123049301E00023CE
S315080047FC0493049B184607B05DF804FB58C00120C7
S3150800480C54BF012000B583B00190009114F028FA2A
S3150800481C019B009A5A60064B9A69019B1A60044AD6
S3150800482C019B936114F024FA00BF03B05DF804FBF6
S3150800483C58C0012008B5044B93F89531002B01D0CC
S3150800484C14F0FEF900BF08BD4CBE012000B585B0BA
S3150800485C03900291019200931422002103981CF0F4
S3150800486C93FF039B029A5A60039B019A9A60039BD7
S3150800487C009ADA60039B069A1A6114F07FF90B4BBF
S3150800488CDB69002B03D1094A039BD36103E0074B71
S3150800489C1B6A039A1A60054A039B136214F0D0F933
S315080048AC14F08AF900BF05B05DF804FB58C0012066
S315080048BC00B585B0039002910192039B112B10D879
S315080048CC019B002B06D10A4A039B023352F823306C
S315080048DC002B09D10649039B0233029A41F823207F
S315080048EC02E00448FEF780FA00BF05B05DF804FB49
S315080048FC4CBE012078C7020808B5302200210248B0
S3150800490C1CF042FF00BF08BD84C0012000B583B06F
S3150800491C0190184B1B68002B1FD1174B93F891313C
S3150800492C1A4613465B0113449B001946134806F0B6
S3150800493CA7FD02460F4B1A600E4B1B68002B02D1C3
S3150800494C0F48FEF751FA0F490F48FFF7A7F90BF076
S3150800495C0BFD0E490E48FFF76DFB064B1968019ABD
S3150800496C13465B0113449B000B44184603B05DF8D1
S3150800497C04FB00BF84C001204CBE0120DCCA02081F
S3150800498CE4CA0208774B00088CC0012005490008C8
S3150800499CB4C0012000B587B00190019B1846FFF7FB
S315080049ACB5FF0590059B1B6B002B21D0124B596844
S315080049BC019A13461B011344DB000B440493059B15
S315080049CC1A6B049BDA62059B9A6B049B1A63059B0C
S315080049DC1A6C049B5A6302230393049B03F1380055
S315080049EC059B03F14C01039B9B001A461CF0A2FE87
S315080049FC00BF07B05DF804FB4CBE012000B587B0BC
S31508004A0C039002910192039B1846FFF77FFF0490CF
S31508004A1C049B029A1A60049B00229A60049BDB6D25
S31508004A2C002B05D0049BDB6D029A11460398984718
S31508004A3C094B5B68059308E0059B1B680398019A6C
S31508004A4C02999847059B5B680593059B002BF3D148
S31508004A5C00BF07B05DF804FB84C0012000B589B01F
S31508004A6C0390029101920298FFF724F90690039B92
S31508004A7C5B68069A9A4246D0069B002B1ED0039B6F
S31508004A8C00225A61039BDB6A002B0ED0039B1B6822
S31508004A9C062B07D0039B1B68072B03D0039B1B68AD
S31508004AAC082B02D10223079301E001230793029BEB
S31508004ABC002207991846FFF7A1FF24E0039B1B6900
S31508004ACC002B11D014F096F80246039B1B691A4466
S31508004ADC039B5A61039B5B69002B14D1039B5B698F
S31508004AEC5A1C039B5A610EE014F084F803465A1EAE
S31508004AFC039B5A61039B5B69002B04D1039B5B697F
S31508004B0C5A1E039B5A61019B002B03D1039B5B69BD
S31508004B1C002B21D0039B5B691846FFF7F7F8059025
S31508004B2C019B002B02D1059B002B15D0039B002261
S31508004B3C5A61039B93F87E30002B02D0012B06D0CA
S31508004B4C0BE0029BDBB21846FEF72CFD05E0029B38
S31508004B5C1846FFF71FFF00E000BF039B069A5A6032
S31508004B6C069B184609B05DF804FB00B585B00190A4
S31508004B7C0B468DF8033013468DF802309DF803303A
S31508004B8C002B0ED10198FFF7C1FE0390019B002262
S31508004B9C01211846FFF732FF012201990398FFF706
S31508004BAC5DFF00BF05B05DF804FB88B003900B46AB
S31508004BBC01928DF80B30039B1B680793079B5A1CB5
S31508004BCC07929DF80B201A70079B5A1C0792042211
S31508004BDC1A70079B0693019B0593059B1ABA069BAD
S31508004BEC1A60079B04330793039B079A1A6000BF46
S31508004BFC08B0704700B587B00390019200930B4636
S31508004C0C8DF80B30019B002B1BD0039B1B6805935F
S31508004C1C059B5A1C05929DF80B201A70059B5A1C6D
S31508004C2C0592009AD2B21A70009B1A4601990598F9
S31508004C3C1CF080FD009B059A13440593039B059A6B
S31508004C4C1A6000BF07B05DF804FB00B587B0039087
S31508004C5C0B4601928DF80B30019B002B0BD001985B
S31508004C6C14F058FB034605939DF80B10059B019A07
S31508004C7C0398FFF7BFFF00BF07B05DF804FB000001
S31508004C8C00B593B0059004910392049B03F59C73AD
S31508004C9C0E9300230793059A079B13441846FFF7B0
S31508004CAC35FE0D900D9B00225A630D9B0022DA638C
S31508004CBC0D9B4FF0FF32DA610D9B4433082200211D
S31508004CCC18461CF061FD6DE1049B5A1C04921B7876
S31508004CDC8DF833309DF83330FF2B01D1002370E16A
S31508004CEC9DF83330002B00F05D81049B5A1C04920E
S31508004CFC1B788DF847309DF83330013B3A2B00F280
S31508004D0C3C8101A252F823F0014E0008874F000897
S31508004D1C174E0008874F0008874F0008A34E000857
S31508004D2C874F0008874F0008874F0008874F0008F1
S31508004D3C874F0008594F0008874F0008874F00080F
S31508004D4C6B4F0008874F0008874F0008874F0008ED
S31508004D5C874F0008874F0008874F0008874F0008C1
S31508004D6C874F0008874F0008874F0008874F0008B1
S31508004D7C874F0008874F0008874F0008874F0008A1
S31508004D8C874F0008874F0008874F0008874F000891
S31508004D9C874F0008874F0008874F0008874F000881
S31508004DAC874F0008874F0008874F0008874F000871
S31508004DBC874F0008874F0008874F0008874F000861
S31508004DCC874F0008874F0008874F0008874F000851
S31508004DDC374E0008874F00089D4F00089D4F000866
S31508004DEC874F0008874F0008874F0008054F0008B3
S31508004DFC2F4F000804980BF039FF02460D9B5A6397
S31508004E0C0D9B5A6B039BDA60C7E09DF84730032B62
S31508004E1C40F2C08004980BF029FF02460D9BDA631A
S31508004E2C0D9BDA6B039B9A60B4E0049B0A930A9B6E
S31508004E3C1B681BBA1093109B644A934219D9109B92
S31508004E4C0793624B10930D9B03F17401109B604AF8
S31508004E5CA2FB03235809079B5D4AA2FB03235B09A4
S31508004E6C009303460A465B494FF4802006F04EF839
S31508004E7C0DE00D9B03F17401109B554AA2FB03230D
S31508004E8C5B090A4654494FF4802006F03FF80D9BFF
S31508004E9C109ADA6181E000230F9325E004980BF051
S31508004EACE5FE0B900D9A0F9B10339B0013440B9A3F
S31508004EBC5A600D9B93F88130002B0AD10D9B03F198
S31508004ECC74020B9B00930F9B44494FF4802006F009
S31508004EDC1DF89DF84730043B8DF84730049B043386
S31508004EEC04930F9B01330F939DF84730032B53D92B
S31508004EFC0F9B012BD2DD4FE0049B0993099B1B6882
S31508004F0C1BBA07930D9B03F17401079B304AA2FB4E
S31508004F1C03235B090A4632494FF4802005F0F6FF55
S31508004F2C3BE0049B0893089B1B681BBA07930D9BD5
S31508004F3C03F17401079B264AA2FB03235B090A4665
S31508004F4C28494FF4802005F0E1FF26E00D9B7433C9
S31508004F5C1A4625494FF4802005F0D8FF1DE0049A1F
S31508004F6C22494FF4802005F0D1FF039B049A1A605E
S31508004F7C039B9DF847201A740FE00D9B03F17402EE
S31508004F8C9DF833301A494FF4802005F0BFFF04E032
S31508004F9C00BF02E000BF00E000BF9DF84730049A4E
S31508004FAC13440493049A0E9B9A427FF68DAE0D9B7E
S31508004FBC74331A460F494FF4003005F0E5FF4FF0ED
S31508004FCCFF33184613B05DF804FB00BF8099400008
S31508004FDC89888888FCCA020820CB020838CB0208C4
S31508004FEC50CB02086CCB020888CB0208A0CB02086F
S31508004FFCBCCB0208E0CB020884B0034600918DF8BE
S3150800500C0730009B03F59C7303931CE0009B1B78ED
S3150800501C9DF807209A4201D1009B19E0009B1B784A
S3150800502CFF2B01D1002313E0009B1B78002B03D127
S3150800503C009B0133009306E0009B01331B78023377
S3150800504C009A13440093009A039B9A42DED30023DA
S3150800505C184604B0704700B585B001900023039339
S3150800506C01993620FFF7C8FF0290029B002B09D046
S3150800507C029B01330293029B0133029302980BF0B5
S3150800508CF5FD0390039B184605B05DF804FB00007C
S3150800509C00B587B0019000912A4B5968019A1346BE
S315080050AC1B011344DB000B440593019B1846FFF7C1
S315080050BC2DFC0490062303934FF496720021009856
S315080050CC1CF062FB009B01221A70009B01225A708D
S315080050DC039BDAB2009B9A70009B0022DA70049B41
S315080050EC1B68072B03D1009B00225A8109E0049BFD
S315080050FC93F8823003F00103002B02D1009B802227
S3150800510C5A81049BDA68009B5A60049BB3F87A3080
S3150800511C5BBA9AB2009B1A81059804F013FD0346F4
S3150800512C002B02D10848FDF75FFE009B03F11C001B
S3150800513C059B7633039A19461CF0FCFA00BF07B098
S3150800514C5DF804FB4CBE012000CC020800B587B004
S3150800515C019000238DF81330019B1B6B002B39D162
S3150800516C019BDB6A18460BF0A9FD0390039B002BE9
S3150800517C03DB4FF07F43059325E0039B03F0404385
S3150800518CB3F1004F02D1154B05931CE0039B03F0BA
S3150800519C6043B3F1404F03D16FF0FF03059312E060
S315080051AC0F4B19689DF8132013465B0113449B009B
S315080051BC0B4474331A460B494FF4003005F0E4FEE1
S315080051CC6FF0FF03059305980BF078FD0246019BDB
S315080051DC1A6300E000BF07B05DF804FB0000FFFF90
S315080051EC84C0012018CC020800B58BB00590274B5B
S315080051FC5968059A13461B011344DB000B440993A3
S3150800520C059B1846FFF782FB0890089B03F1740070
S3150800521C089BDB6A089A526B0899C96B0291019232
S3150800522C0093059B02461A494FF4003005F06EFEB2
S3150800523C089BDA6A099BDA62089B5A6B099B1A6304
S3150800524C089BDA6B099B5A63099B1B6B002B06D1CF
S3150800525C0998FFF77BFF099B1A6B089B5A63089BF7
S3150800526C93F88130002B0CD102230793099B03F189
S3150800527C3800089B03F14401079B9B001A461CF057
S3150800528C59FA00BF0BB05DF804FB00BF4CBE0120F9
S3150800529C30CC020800B589B00590049111461A461F
S315080052AC0B46ADF80E301346ADF80C30049BB3F133
S315080052BCFF3F17D1059B1846FFF728FB0790079B5E
S315080052CC1B68062B0ED0079B1B68072B0AD0079B5F
S315080052DC1B68082B06D00A9BDB7D43F00203DAB267
S315080052EC0A9BDA750B4B5968059A13461B0113442E
S315080052FCDB00C818BDF80C10BDF80E200A9B0093ED
S3150800530C0B4604990AF0CCFD0346184609B05DF81D
S3150800531C04FB00BF4CBE012000B58BB00590049170
S3150800532C0392059B039918460AF092FE0990099B6D
S3150800533C002B11D11D4B1968059A13465B011344B2
S3150800534C9B000B4474331A4619494FF4003005F088
S3150800535C1BFE6FF01C0325E0039B9AB2099B1A826D
S3150800536C099BDB680893039A049908981CF0E2F9E0
S3150800537C089B01221A70089BF03319463520FFF753
S3150800538C3BFE0790079B02330793079B04221A7070
S3150800539C099B0093442343224FF0FF310598FFF7EE
S315080053AC79FF002318460BB05DF804FB84C0012076
S315080053BC60CC020800B583B001900C4B5968019A71
S315080053CC13461B011344DB00C818094B1968019ACC
S315080053DC13465B0113449B000B44DB6A194610F019
S315080053ECCFF800BF03B05DF804FB00BF4CBE01202C
S315080053FC84C0012000B599B0059004910392059BD1
S3150800540C1846FFF783FA1190059B4FF40971184655
S3150800541C0AF01EFE1090109B002B0BD1119B03F16A
S3150800542C7402039B95494FF4003005F0ADFD6FF0FF
S3150800543C1C0317E2119B9B685A1C119B9A601098C7
S3150800544C0BF032F80F904FF4097200210F981CF0EC
S3150800545C9BF9039B012B0DD1894B5B695A1C884917
S3150800546C4A61119AD360864B5B6A9AB2119BA3F870
S3150800547C7A200DE0049B002B0AD0814B5B695A1CE1
S3150800548C7F494A61119AD360119B0022A3F87A20AE
S3150800549C0F990598FFF7FCFD0F9BEC330E93794893
S315080054AC0BF00CFC02460E9B1A600F9BF03307930D
S315080054BC119B93F87C30002B00F06E81079B5A1CCD
S315080054CC079235221A70079B5A1C079201221A70EA
S315080054DC079B5A1C0792039AD2B21A70119B9B6EA1
