S02B00004F75747075742F5345532F49505F6F7665725F5553425F5765627365727665725F52656C65617365C9
S31508000000000001205D020008AD010008AF010008EC
S31508000010B1010008B3010008B5010008000000009E
S31508000020000000000000000000000000B701000802
S31508000030000000000000000009ED00081DFE000891
S31508000040BF010008BD010008C1010008C30100087E
S31508000050C5010008C7010008C9010008CB0100084E
S31508000060CD010008CF010008D1010008D30100081E
S31508000070D5010008D7010008D9010008DB010008EE
S31508000080DD010008DF010008E1010008E3010008BE
S31508000090E5010008E7010008E9010008EB0100088E
S315080000A0ED010008BD010008EF010008BD010008C8
S315080000B0F1010008F3010008F5010008F70100083E
S315080000C0F9010008BD010008BD010008FB01000890
S315080000D0FD010008FF0100080102000803020008EC
S315080000E00502000807020008090200080B020008BA
S315080000F00D0200080F02000811020008130200088A
S315080001001502000817020008190200081B02000859
S31508000110BD0100081D0200081F0200082102000890
S315080001202302000825020008270200082902000801
S315080001302B0200082D0200082F02000831020008D1
S3150800014033020008350200083702000871FB000870
S315080001503B0200083D0200083F020008BD010008F6
S31508000160BD010008BD01000841020008430200085D
S3150800017045020008CDFB000849020008BD01000839
S315080001804B020008BD010008BD0100084D02000829
S315080001904F020008510200085302000855020008E1
S311080001A057020008590200085B0200081C
S315080001ACFEE7FEE7FEE7FEE7FEE7FEE7FEE7FEE70D
S315080001BCFEE7FEE7FEE7FEE7FEE7FEE7FEE7FEE7FD
S315080001CCFEE7FEE7FEE7FEE7FEE7FEE7FEE7FEE7ED
S315080001DCFEE7FEE7FEE7FEE7FEE7FEE7FEE7FEE7DD
S315080001ECFEE7FEE7FEE7FEE7FEE7FEE7FEE7FEE7CD
S315080001FCFEE7FEE7FEE7FEE7FEE7FEE7FEE7FEE7BD
S3150800020CFEE7FEE7FEE7FEE7FEE7FEE7FEE7FEE7AC
S3150800021CFEE7FEE7FEE7FEE7FEE7FEE7FEE7FEE79C
S3150800022CFEE7FEE7FEE7FEE7FEE7FEE7FEE7FEE78C
S3150800023CFEE7FEE7FEE7FEE7FEE7FEE7FEE7FEE77C
S3150800024CFEE7FEE7FEE7FEE7FEE7FEE7FEE7FEE76C
S3150800025C054820F0070085460448804704480549A8
S3150800026C016000F009B800000000012085FC0008B8
S3150800027C08ED00E000000008354936480A1A02D095
S3150800028C072291438D46344934480A1A06D0072268
S3150800029C914381F30988022282F314883048314944
S315080002AC314A00F043F831483149324A00F03EF8F9
S315080002BC31483249324A00F039F832483249334A21
S315080002CC00F034F832483349334A00F02FF83348F3
S315080002DC3349344A00F02AF833483449344A00F092
S315080002EC25F834483449002200F02BF833483449B1
S315080002FC002200F026F833483349091A082903DB8B
S3150800030C00220260043001601F482049884205D04B
S3150800031C0268043003B4904703BCF7E7002086460E
S3150800032CEC4600200021294A9047FEE7884207D070
S3150800033C521A05D0037801300B700131013AF9D104
S3150800034C7047884202D002700130FAE77047000005
S3150800035C0000012000FC0020000001200000012004
S3150800036C64E8010800000020A8010020DC0300084E
S3150800037CDC030008DE47010864E8010800000020D9
S3150800038C00000020E0470108E0470108E0470108A3
S3150800039CE0470108E0470108E0470108E047010883
S315080003ACE047010864E801080CEA0108A8010020E6
S315080003BCA80100200000012038D40120A801002043
S315080003CCA8010020A8010020A8020020DD030008CF
S315080003DC00B585B0802072B680F3118862B600BF6E
S315080003EC00BF144A53780133DBB253700DF010FD7D
S315080003FC0FF030FD0FF078FB02224FF480510E4BB4
S3150800040C029264220D48CDE900310D4B0D490EF0D0
S3150800041C1FFA802072B680F3118862B600BF00BF3F
S3150800042C094B01221A700EF0BDFC002005B05DF8D0
S3150800043C04FB00BFC8C101200000012000100120E8
S3150800044C2D080008E047010809C201200020704762
S3150800045C80687047D0E9002310B514680849E25C37
S3150800046C1C442F2A08BF0134204614F0BBF8241A62
S3150800047C18BF0124002814BF2046002010BD00BF59
S3150800048C54CD010838B5D0E9005009492C68235CCD
S3150800049C04442F2B08BF0134204614F0A3F828B1C6
S315080004AC201AB0FA80F0400900B938BDA86838BDE2
S315080004BC54CD01082DE9F843D0E90083541E0646AD
S315080004CCD8F800500F46EA5C1D442F2A1FD04FF06F
S315080004DC00091149284614F085F808B1401B0ED1BD
S315080004EC284614F046F98442294628BF044638465D
S315080004FC224614F099F800233B55BDE8F883736837
S3150800050CC6F80C8001334B440344B360EBE7013562
S3150800051C4FF00109DDE700BF54CD010810B544685A
S3150800052C0846A1181A4614F07FF8002010BD00BF23
S3150800053C2DE9F041054684B0084616460C4614F0DB
S3150800054C18F9294A00230190D2F80080CDE9023324
S3150800055CB8F1000F19D0D8F804102246084603E063
S3150800056C10F8017B9F420BD112F8013B002BF7D1F7
S3150800057C029A52BB08F10403694628460093B04711
S3150800058CD8F80080B8F1000FE5D1DFF86080D8F80C
S3150800059C0010B9B10846224603E010F8017B9F42C9
S315080005AC0AD112F8013B002BF7D1029AA2B9694677
S315080005BC2846CDF80080B04708F10C08D8F800108A
S315080005CC0029E7D104B0BDE8F081039B186813F045
S315080005DCA1FF0028CED1D3E7039B186813F09AFF26
S315080005EC0028E4D1E8E700BF3C10012000000020F9
S315080005FC114B70B51C68064614B90AE0246844B158
S3150800060C6168304614F08EF80028F7D10434204679
S3150800061C70BD0A4D296831B90024204670BD55F8BD
S3150800062C0C1F0029F8D030462C4614F07BF800280D
S3150800063CF5D1204670BD00BF3C10012000000020FB
S3150800064C2DE9F04184B005460AF03AFA044602F060
S3150800065C7BFC0AF0BDFC039018B9002004B0BDE879
S3150800066CF08128460AF030FA08221E4913F052FF88
S3150800067C06460028F1D1802120460AF01BF980464F
S3150800068C0028EAD00AF020FA074602A928460422CE
S3150800069C0AF0E8F880223146384613F0EEFF124984
S315080006AC384614F01DF8204602F04EFC0AF090FC71
S315080006BC03A90390042207F1200013F0B5FF07F1F4
S315080006CC30012046062202F093FB4CF26433CDF837
S315080006DC008020461A4602990AF0CAF8002004B08F
S315080006ECBDE8F081E8CE0108F4CE010809B9012A63
S315080006FC02D0012902D10AB903F04CB8704700BFE1
S3150800070C10B4144600230A46014620465DF8044BED
S3150800071C07F01ABF10B4144600230A4601462046B1
S3150800072C5DF8044B07F0C8BF0AF076BC01460148D1
S3150800073C0AF060BC8C18012030B5082285B0054635
S3150800074C01240DEB020300924FF0FF318022CDE914
S3150800075C024407F0CDFF284608F076F805B030BD00
S3150800076C10B40446802072B680F3118862B600BFB6
S3150800077C00BF0A4B0A495A78086801322044D2B29B
S3150800078C08605A705A78013AD2B25A705B7813B923
S3150800079C002080F311885DF8044B7047C8C101200E
S315080007AC4010012010B504218AB00124082203AB9D
S315080007BC00914FF0FF310394044607F099FF134A52
S315080007CC04A8134B13491B680092134A0DF03EF804
S315080007DC124B04A800221B682146012B13DD0DF0D1
S315080007EC75F8012802D02046FFF7A6FF0DF0E4FAAB
S315080007FC4FF0FF30FFF7B4FF00200EF06BF90DF049
S3150800080CE3FA0AB010BD0DF05DF8EAE714CF01085B
S3150800081C34460120FCCE010804CF01084010012003
S3150800082C2DE9804891B06F4C02F0D2FE02F0D0FD53
S3150800083C0221451E4FF400626B4B6C4800936C4BBF
S3150800084CCDE9012198226B4925600EF001F86A4919
S3150800085C6A4802F0F5FC206802F088FF04E00FF005
S3150800086C73F9C8200EF076F8206802F00FFD002800
S3150800087CF5D0634D00200FF05FF99721A868002684
S3150800088C0EF0E2F8A8685F494FF480770EF00EF97F
S3150800089C4CF264325C4B3046114600960AF04AF824
S315080008AC01F080FA4FF47A72DFF88CC13146574B57
S315080008BC0AA805921822C3F800C013F0DEFE2068B9
S315080008CC0A9702F041FD4022A0F148010C230AA820
S315080008DC0B910E97CDE90C230CF0E2FF30460CF089
S315080008ECFDFE403002224FF4A0514400484806F061
S315080008FCC1FEB4F5A05F6FD84FF4A051454802F07D
S3150800090C93F900220121022007F05EFCB0F1FF3FAB
S3150800091C814600D1FEE71022002106A8DFF81C81CB
S3150800092C13F0ABFE3C48002306A906901022484655
S3150800093C079307F04FFD14214846DFF804B108F178
S3150800094C3C0A07F071FD00224846114607F0E2FC06
S3150800095C431C0446F7D02E6A06F57A7606E02B6A0F
S3150800096C0A209B1B002B2EDC0DF0F4FFDBF8003065
S3150800097C012BF4DC40460EF02DF808B350460EF069
S3150800098C29F80028EBD1254F5646042005AB41F231
S3150800099C06024FF0FF310090204607F0A9FE02220E
S315080009AC40F6984330460292962201930394009798
S315080009BC1B4B1C490DF08CFF0120FFF7D1FEC2E73B
S315080009CC194F4646E1E72246184919480CF082FFAA
S315080009DC2046FFF7B1FEB6E72146164806F064FE38
S315080009EC8AE700BF4410012048100120481801204E
S315080009FCA130000854CE0108F90600088418012015
S31508000A0CC8C101205CCE01084D06000834460120F9
S31508000A1C6CCE01088C1801200200005024390120E4
S31508000A2CB1070008D8CE01088C2C01200D07000848
S31508000A3C21070008A8CE010810CD0108BC450120E5
S31508000A4C40100120074B084A03F1080010B4002493
S31508000A5C13F8011F834202F8011F1C70F8D15DF8C8
S31508000A6C044B70476F46012067460120704700BF4C
S31508000A7C38B504460D4606490CF010FE29462046A4
S31508000A8C0CF00CFE20460349BDE838400CF006BEB7
S31508000A9C98D60108BCD6010810B584B004460020C7
S31508000AAC02F052FA10220146684606F0CDFD694658
S31508000ABC20460CF0F3FD04B010BD00BF10B504467B
S31508000ACC22490CF0EBFD224920460CF0E7FD2046A6
S31508000ADC20490CF0E3FD20461F490CF0DFFD2046AB
S31508000AEC1E490CF0DBFD20461D490CF0D7FD2046AF
S31508000AFC1C490CF0D3FD20461B490CF0CFFD2046B3
S31508000B0C1A490CF0CBFD204619490CF0C7FD2046B6
S31508000B1C18490CF0C3FD204617490CF0BFFD2046BA
S31508000B2C16490CF0BBFD204615490CF0B7FD2046BE
S31508000B3C14490CF0B3FD204613490CF0AFFD2046C2
S31508000B4C1249BDE810400CF0A9BD00BF48D70108F2
S31508000B5C5CD7010884D70108BCD70108F8D7010867
S31508000B6C30D8010870D80108A8D8010870D901082E
S31508000B7CDCD801080CD9010840D9010878D9010834
S31508000B8CB4D90108E8D901081CDA010854DA0108B5
S31508000B9C2DE9F84304460123184A00210CF0EAFE15
S31508000BAC20461749DFF868900CF078FDDFF864806A
S31508000BBC144F154E03E04FF4FA700DF0CBFED9F82E
S31508000BCC2050414620460CF069FD394620460CF06B
S31508000BDC65FD00230A22294620460CF065FD3146A0
S31508000BEC20460CF05BFD094920460CF057FD2046C3
S31508000BFC0CF060FD0028DED0BDE8F8839CD5010812
S31508000C0CB0D50108C8D5010898E40108D8D501085B
S31508000C1CC8C10120C0D501082DE9F04F0446A1B082
S31508000C2CCE490CF03BFDCE4920460CF037FDCD499C
S31508000C3C20460CF033FDCC4920460CF02FFDCB4951
S31508000C4C20460CF02BFDCA4920460CF027FDC94955
S31508000C5C20460CF023FDC74920460CF01FFDC3495E
S31508000C6C20460CF01BFDC44920460CF017FD00204D
S31508000C7C02F06AF910220146684606F0E5FC694658
S31508000C8C20460CF00BFD002002F052F90546BB4934
S31508000C9C20460CF003FD10222946684606F0D4FCC3
S31508000CAC694620460CF0FAFCB44920460CF0F6FCD2
S31508000CBCAE4920460CF0F2FC0DF07EF8B049204601
S31508000CCC0CF0ECFCAF4920460CF0E8FC09A80A210C
S31508000CDC07F038FE051E40F3818109AF04AEAB461A
S31508000CEC07EB8508B946B24613A959F8040B07F061
S31508000CFC4FFEBDF850302AF8023B08B10BF1FF3B0A
S31508000D0CC145F1D1594600230A2220460CF0CCFCE9
S31508000D1C4FF0000B0DF1240C0BF1010E06F1020934
S31508000D2C754526DD5A467346494620A800EB420A05
S31508000D3C31F8020B3AF870AC824588BF1A46013373
S31508000D4C9D42F2D15A4514D020ABB6F800A0DCF877
S31508000D5C000003EB420103EB820231F870BC52F837
S31508000D6C5C3CA6F800B0CCF8003021F870AC42F820
S31508000D7C5C0C75454E460CF1040CF346CCD18249F5
S31508000D8C20460CF08BFC81492046DFF848A20CF073
S31508000D9C85FC7F4920467F4D0CF080FC7E49204619
S31508000DACDFF834920CF07AFC7C4920460CF076FC81
S31508000DBC7B4920460CF072FC7A4920460CF06EFCF6
S31508000DCC794920460CF06AFC784920460CF066FCFA
S31508000DDC774920460CF062FC764920460CF05EFCFE
S31508000DEC754920460CF05AFC02E0474500F08F8006
S31508000DFC13A957F8040B07F0CBFD06460028F4D1C7
S31508000E0C514620460CF04AFC33460A22BDF85010CF
S31508000E1C20460CF049FC294620460CF03FFC179955
S31508000E2C00297DD1654920460CF038FC49462046F8
S31508000E3C0CF034FC00230A22BDF8621020460CF094
S31508000E4C33FC294620460CF029FC1699002970D14A
S31508000E5C5B4920460CF022FC5A4920460CF01EFC35
S31508000E6C9DF8640007F0F2FD014620460CF016FCCE
S31508000E7C294620460CF012FC00230A22BDF86610FF
S31508000E8C20460CF011FC504920460CF007FC0023B8
S31508000E9C0A22BDF8681020460CF006FC29462046A6
S31508000EAC0CF0FCFB00230A221B9920460CF0FCFBD9
S31508000EBC294620460CF0F2FB00230A221C992046F0
S31508000ECC0CF0F2FB294620460CF0E8FB00230A221C
S31508000EDC1D9920460CF0E8FB3B4920460CF0DEFB3E
S31508000EEC00230A221E9920460CF0DEFB29462046D2
S31508000EFC0CF0D4FB00230A221F9920460CF0D4FBD5
S31508000F0C324920460CF0CAFB47457FF471AF0CF00A
S31508000F1C5BFF2F4920460CF0C1FB21B0BDE8F08FD2
S31508000F2C1022684606F090FB694620460CF0B6FB84
S31508000F3C7CE71022684606F087FB694620460CF0CB
S31508000F4CADFB494620460CF0A9FB00230A22BDF846
S31508000F5C601020460CF0A8FB7EE700BFD8D001082D
S31508000F6CF0D0010804D1010814D1010854DA01089B
S31508000F7C24D1010838D1010840D1010810D3010841
S31508000F8C54D1010870D10108D8D10108FCD1010847
S31508000F9C04D2010890D101080CD201081CD2010810
S31508000FAC2CD201083CD201084CD2010860D20108A7
S31508000FBC78D201088CD20108A4D201089CD1010868
S31508000FCCA0D10108A4D1010854CD0108C0D101084B
S31508000FDCCCD1010884D10108D4E2010800230A22E5
S31508000FEC294620460CF060FB184920460CF056FBA7
S31508000FFC174920460CF052FB164920460CF04EFBBE
S3150800100C154920460CF04AFB144920460CF046FBC1
S3150800101C134920460CF042FB124920460CF03EFBC5
S3150800102C114920460CF03AFB104920460CF036FBC9
S3150800103C0F4920460CF032FB0E4920460CF02EFBCD
S3150800104C0D4920460CF02AFB61E700BFD8D10108F0
S3150800105CFCD1010804D201080CD201081CD20108E3
S3150800106C2CD201083CD201084CD2010860D20108E6
S3150800107C78D201088CD20108A4D2010870B50446AE
S3150800108C0123104A00210CF075FC20460E490F4E20
S3150800109C0F4D0CF003FB03E04FF4FA700DF05AFCFD
S315080010AC314620460CF0FAFA2046FFF7B5FD2946DC
S315080010BC20460CF0F3FA20460CF0FCFA0028EBD08C
S315080010CC70BD00BF9CD50108B0D50108C0D5010874
S315080010DCD8D50108FFF7A0BD2DE9F84304467D498C
S315080010EC0CF0DCFA7C4920467C4D0CF0D7FA7C498E
S315080010FC20460CF0D3FA7B4920460CF0CFFA7A49F5
S3150800110C20460CF0CBFA794920460CF0C7FA7849F8
S3150800111C20460CF0C3FA774920460CF0BFFA7349FF
S3150800112C20460CF0BBFA0CF047FE734920460CF02F
S3150800113CB5FA0DF02FFC002301460A2220460CF0C6
S3150800114CB3FA6E4920460CF0A9FA00230A22296A3A
S3150800115C20460CF0A9FA694920460CF09FFA0DF0C6
S3150800116CAFFD00230A22014620460CF09DFA64497D
S3150800117C20460CF093FA0DF09FFD00231022014631
S3150800118C20460CF091FA594920460CF087FA5D492D
S3150800119C20460CF083FA5C4920460CF07FFA5B4932
S315080011AC20460CF07BFA5A4920460CF077FA594936
S315080011BC20460CF073FA584920460CF06FFA57493A
S315080011CC20460CF06BFA564920460CF067FA204676
S315080011DC54490CF063FAED68002D72D0DFF82C91A7
S315080011EC514FDFF85881514E494620460CF056FAB5
S315080011FC394620460CF052FA414620460CF04EFA77
S3150800120C00231022294620460CF04EFA3146204679
S3150800121C0CF044FA394620460CF040FA28460DF0F4
S3150800122CCFFB00230A22014620460CF03DFA314634
S3150800123C20460CF033FA3E4920460CF02FFA284685
S3150800124C0DF09AFB014620460CF028FA314620464A
S3150800125C0CF024FA394620460CF020FA00230A2210
S3150800126C204619460CF020FA314620460CF016FAA0
S3150800127C394620460CF012FA00230A222046194653
S3150800128C0CF012FA2B4920460CF008FA00230A2215
S3150800129C204619460CF008FA194920460CF0FEF9B6
S315080012AC00231022204619460CF0FEF9314620463A
S315080012BC0CF0F4F91B4920460CF0F0F92D68002DBA
S315080012CC92D10CF081FD20461B49BDE8F8430CF081
S315080012DCE5B900BFBCD20108F0D00108C8C101208D
S315080012ECD4D20108E8D20108F8D2010854DA010868
S315080012FC24D1010818D3010840D1010810D30108DC
S3150800130C28D301082CD30108FCD1010804D2010802
S3150800131C44D3010850D3010864D3010878D30108D3
S3150800132C94D30108A8D3010888D1010834D201083E
S3150800133CB4D3010854CD0108CCD10108B0D30108A7
S3150800134C70B504460123104A00210CF013FB204605
S3150800135C0E490F4E0F4D0CF0A1F903E04FF4FA703D
S3150800136C0DF0F8FA314620460CF098F92046FFF7AE
S3150800137CB3FE294620460CF091F920460CF09AF952
S3150800138C0028EBD070BD00BF9CD50108B0D501086C
S3150800139CC0D50108D8D50108FFF79EBE10B4054C78
S315080013AC05492368013323601A465DF8044B0CF093
S315080013BC4FB900BF384601200CD7010810B50446B2
S315080013CC0CF0EAFA30B1C26820460649BDE810406E
S315080013DC0CF03EB9204601220249BDE810400CF03B
S315080013EC37B900BFCCD6010870B505790468A5B91C
S315080013FC602009F0EFFD064648B12946602213F035
S3150800140C3CF9104B104A314620460CF075FB314618
S3150800141C2046BDE870400CF0BDBA20460CF0BCFA6C
S3150800142C022D0646F3D120460CF0B6FA06460028DD
S3150800143CEDD0002609F0F0FD20463146BDE8704097
S3150800144C0CF0A8BAB4DA01085914000830B50446E9
S3150800145C87B000680CF0A0FA78B1092103AB0546F1
S3150800146C0722206800910D490CF056FB431E082BE9
S3150800147C07D90024204607B030BD0224204607B001
S3150800148C30BD06AB0024034403A803F80C4C0DF03E
S3150800149C5FFFE860204607B030BD00BFACDA010834
S315080014AC70B506460CF078FA70B1C368044600F1BC
S315080014BC100550210133054A2846E3600EF00AFA56
S315080014CC294630460CF016FB002070BD68DA010878
S315080014DC2DE9F043A9B080460D461746309E99462D
S315080014EC329C002B00F0BB80194611F8013B002BEF
S315080014FC00F0F98009F17F000DF121028DF82030FA
S3150800150C11F8013B1BB1814202F8013BF8D10023CB
S3150800151C1370002E56D0314611F8013B002B00F003
S3150800152CE4808DF8003006F11F020DF1010311F865
S3150800153C010B18B1914203F8010BF8D100217B4A33
S3150800154C284619700CF00CFA794928460CF0A6F8BE
S3150800155C394628460CF0A2F8764928460CF09EF82F
S3150800156C754928460CF09AF8319928460CF096F8E5
S3150800157C704928460CF092F8B9F1000F0BD06F4958
S3150800158C28460CF08BF808A928460CF087F8694908
S3150800159C28460CF083F86A4928466A4F0CF07EF800
S315080015AC694628460CF07AF83B78002B77D06149C7
S315080015BC28460CF073F83B7883BB7CBB002029B01B
S315080015CCBDE8F083594A314628460CF0C9F9584902
S315080015DC28460CF063F8394628460CF05FF855494E
S315080015EC28460CF05BF8544928460CF057F8319904
S315080015FC28460CF053F84F4928460CF04FF84F493B
S3150800160C28460CF04BF808A928464E4F0CF046F81D
S3150800161C484928460CF042F83B787BB14A4928469B
S3150800162C0CF03CF884B93B78002BC7D028464549C2
S3150800163C0CF034F8002029B0BDE8F083002CBDD09E
S3150800164C414928460CF02AF8132C40463D4928BF38
S3150800165C132422460CF0AEF900233B55E3E75EB3A0
S3150800166C314611F8013B002B7FF45BAF19462F4A24
S3150800167C28468DF800300CF073F92D4928460CF0E5
S3150800168C0DF8394628460CF009F82A4928460CF074
S3150800169C05F8294928460CF001F8319974E7002C0D
S315080016AC8CD0002ECCD0234928460BF0F7FF2649C0
S315080016BC28460BF0F3FFC7E71C4A314628460CF0C0
S315080016CC4FF91B4928460BF0E9FF394628460BF01B
S315080016DCE5FF184928460BF0E1FF174928460BF099
S315080016ECDDFF319990E708AA11E719460F4A2846F3
S315080016FC8DF800300CF034F90D4928460BF0CEFF66
S3150800170C394628460BF0CAFF0A4928460BF0C6FF8D
S3150800171C094928460BF0C2FF319928460BF0BEFF43
S3150800172C044928460BF0BAFF29E700BFCCD30108B9
S3150800173CE0D3010800E00108F0D3010810D4010831
S3150800174C00D401089046012020D4010838B50C466F
S3150800175C0F4905460BF01AFFB0FA80F30D492846D7
S3150800176C5B0923730BF012FF50B901200A4B607307
S3150800177C0A4AA1896360002908BF1346A36038BDCD
S3150800178C284607490BF002FFB0FA80F04009EDE74E
S3150800179C5CDC0108E0CD01080000213A000021EECE
S315080017ACC0DA01088AB1134613F8011B81B109483E
S315080017BC0B3200F8011B13F8011B19B1934200F800
S315080017CC011BF8D100230370704702490BF066BF62
S315080017DC0048F7E7844601208AB1134613F8011B23
S315080017EC81B109480B3200F8011B13F8011B19B11A
S315080017FC934200F8011BF8D1002303707047024985
S3150800180C0BF04CBF0048F7E778460120124B10B591
S3150800181C1C782CB1002003F00DF9034688B110BDD5
S3150800182C204603F007F990B90C4B0020196801F013
S3150800183C6FFB0B4A0B4B11681868BDE8104001F09A
S3150800184C43BB02460849BDE8104003F0A7B820463A
S3150800185C03F0C6F8E8E700BF3C46012044460120E1
S3150800186C484601204046012060DA01082DE9F0417E
S3150800187CC2EB42744FF07F45D2000E46E400D540C9
S3150800188C183471B108460DF063FD0F4B80F3080050
S3150800189C1A6800FA04F422EA050222431A60BDE823
S315080018ACF0810746084601F043FB84463346384622
S315080018BC0CEA0501044D0A22E140C5F800C0BDE852
S315080018CCF0410BF0F1BE00BF44460120114603223D
S315080018DCFFF7CCBF11460222FFF7C8BF11460122FB
S315080018ECFFF7C4BF11460022FFF7C0BF2DE9F04130
S315080018FCC2EB42744FF07F45D2000E46E400D54049
S3150800190C183471B108460DF023FD0F4B80F308000F
S3150800191C1A6800FA04F422EA050222431A60BDE8A2
S3150800192CF0810746084601F00FFB844633463846D5
S3150800193C0CEA0501044D0A22E140C5F800C0BDE8D1
S3150800194CF0410BF0B1BE00BF404601201146032200
S3150800195CFFF7CCBF11460222FFF7C8BF114601227A
S3150800196CFFF7C4BF11460022FFF7C0BF10B52AB156
S3150800197C10460DF0EDFC0B4B187010BD04461046C6
S3150800198C03F058F8074BC0B2187028B92046064918
S3150800199CBDE810400BF082BE20460449BDE8104055
S315080019AC0BF07CBE3C46012090D6010838E00108B5
S315080019BC10B52AB110460DF0CBFC0B4B187010BDA8
S315080019CC0446104603F036F8074BC0B2187028B117
S315080019DC20460649BDE810400BF060BE2046044977
S315080019ECBDE810400BF05ABE3C46012090D60108C3
S315080019FC38E001085AB1104610B50DF0A9FC20EADA
S31508001A0CE070064B6428A8BF6420186010BD034913
S31508001A1C13460A2209680BF047BE00BFE4000020F3
S31508001A2C2DE9F041C2EB42744FF07F45D20082B0EB
S31508001A3CE4000E46D540183479B108460DF088FCFA
S31508001A4C114B80F308001A6800FA04F422EA05021E
S31508001A5C22431A6002B0BDE8F081DFF82C800746F5
S31508001A6C01A93046424601F035FAD8F8002033462B
S31508001A7C384615400A2225FA04F4214601940BF03F
S31508001A8C13FE02B0BDE8F081484601201146032238
S31508001A9CFFF7C6BF11460222FFF7C2BF1146012245
S31508001AACFFF7BEBF11460022FFF7BABF10B51446A2
S31508001ABC29B108460E4912F035FE60B110BD0D4B22
S31508001ACC9B5C012B0FD00C490BF0E8FD2046BDE8BA
S31508001ADC10400EF031B8094B012220461A55BDE8C4
S31508001AEC10400EF021B80649BDE810400BF0D6BDE3
S31508001AFC5CDA01086846012038E0010870460120C6
S31508001B0C90D6010811460722FFF7D0BF11460622C8
S31508001B1CFFF7CCBF11460522FFF7C8BF11460422B2
S31508001B2CFFF7C4BF11460322FFF7C0BF11460222B6
S31508001B3CFFF7BCBF11460122FFF7B8BF11460022BA
S31508001B4CFFF7B4BF08B58389B3F5CA7F01D0032064
S31508001B5C08BD0022024900680BF05AFF002008BD98
S31508001B6C58CD010838B504460D460E490BF096FDBE
S31508001B7C294620460BF092FD20460B490BF08EFDAC
S31508001B8C20460A490BF08AFD294620460BF086FDAD
S31508001B9C204607490BF082FD20460649BDE8384029
S31508001BAC0BF07CBD44D0010868D0010874D001083C
S31508001BBCB4D00108C0D0010810B504460A490BF088
S31508001BCC6DFD0A4920460BF069FD204608490BF0C5
S31508001BDC65FD204607490BF061FD20460649BDE820
S31508001BEC10400BF05BBD00BF24CF010834CF0108B1
S31508001BFC70CF0108A4CF0108FCCF0108F0B587B057
S31508001C0C0D462E490446FFF7ADFF002305A903AA86
S31508001C1C284604AFCDE900211A4619460BF00CFDEF
S31508001C2C064628460BF09AFC0023411E00970193A2
S31508001C3C1A4628460BF000FD56EA000315D1204932
S31508001C4C20460BF02BFD059A039920460BF0FAFC5F
S31508001C5C049B1B78312B11D01A4920460BF01EFD1C
S31508001C6C2046FFF7A9FF07B0F0BD174920460BF031
S31508001C7C15FD2046FFF7A0FF07B0F0BD1349204617
S31508001C8C0BF00CFD124920460BF008FD059A03993A
S31508001C9C20460BF0D7FC0F4920460BF0FFFC059AA3
S31508001CAC039920460BF0CEFC0B4920460BF0F6FCAC
S31508001CBC2046FFF781FF07B0F0BD00BF14D6010818
S31508001CCC28D6010860D6010878D6010834D601084A
S31508001CDC48D6010854D60108ECD701082DE9F0417D
S31508001CEC002492B00F462A490646FFF73BFF2346C7
S31508001CFC224621460194009438460BF09DFC054675
S31508001D0C0194234600942246384601210BF094FC94
S31508001D1C55EA000431D102AD4FF04008234622465D
S31508001D2C2146CDF80480009538460BF053FC19492A
S31508001D3C30460BF0B3FC294630460BF0AFFC16497F
S31508001D4C30460BF0ABFC2346224638460121CDE93A
S31508001D5C00580BF03FFC114930460BF09FFC294606
S31508001D6C30460BF09BFC0C4930460BF097FC304682
S31508001D7CFFF722FF12B0BDE8F081094930460BF097
S31508001D8C8DFC3046FFF718FF12B0BDE8F08100BF96
S31508001D9C14D60108DCD50108F0D50108F8D50108D8
S31508001DAC08D6010808B50B480BF0C4FD0A4A0B49BE
S31508001DBC0B480BF0F3FD01220A490B480BF0C0FD4A
S31508001DCC0A490B480BF0C4FD00210A48BDE8084037
S31508001DDC0BF05CBF591700080CCF0108DD1400087E
S31508001DEC4C460120AD14000858460120F51300088E
S31508001DFC60460120511B0008704700BF2DE9F047CB
S31508001E0C434E82B03368984202D002B0BDE8F087E0
S31508001E1C15460446C2B93F4E02463F4B00963F490B
S31508001E2C3F4801F089FD2A4600963E4B3E493F48FD
S31508001E3C01F082FD2A463E4B3E493F48009601F08A
S31508001E4C7BFD02B0BDE8F08710F0D6FF3B4B0002D5
S31508001E5C3B4D3C4F4FF0040E80B2DFF83C813A49BB
S31508001E6C6FF0070C0343DFF834914FF0010AC8F8FA
S31508001E7C04105A1C0B60284600217A601022C7F8F9
S31508001E8C0CE03C60C9F80430C9F80040C8F80040BA
S31508001E9CC9F808C01F4CC7F808C0C8F808A012F043
S31508001EACECFBDFF8FCC03C2028494A460094284B3A
S31508001EBCC5F80CC029606860C5F808A025492648ED
S31508001ECC01F03AFD3A460094244B2549254801F081
S31508001EDC33FD42460094244B2449254801F02CFD39
S31508001EEC0094244B32682449244801F025FD2A46DF
S31508001EFC0094234B2349244801F01EFD2A46234B04
S31508001F0C23492448009401F017FD02B0BDE8F08778
S31508001F1CDC460120051E000840DD0108B555000801
S31508001F2C6447012050DD01085161000878470120FB
S31508001F3C64DD0108E16100088C47012001007F641B
S31508001F4CC0460120B0460120D0460120C4DC010859
S31508001F5CC8DC0108C92E0008EC460120D8DC0108AB
S31508001F6C4954000800470120ECDC0108BD54000860
S31508001F7C1447012004DD010855550008284701209F
S31508001F8C14DD0108C56000083C4701202CDD01085A
S31508001F9CAD61000850470120A4460120E046012007
S31508001FACE800002010B5002488B003F087FA0FF07B
S31508001FBC7FFE1B4810F014FF0FF0F2F9214602A819
S31508001FCC182212F05AFB4FF4C0612246154B0091A9
S31508001FDC2046022110F054FB23468DF809002246B0
S31508001FEC00940221012010F04BFB23468DF80800C3
S31508001FFC052200940321012010F042FB0A4B0B4AE0
S3150800200C19680B4B8DF80A0002A8069103920793E0
S3150800201C0FF0CAFA0FF088FE204608B010BD00BFB4
S3150800202CA8DC0108A0A70120DC46012074010020C9
S3150800203CB8DC010810B54FF4C0411B4800F006FE89
S3150800204C1A4804F057FC1A49044601F085FB19494D
S3150800205C194801F0F5F8194B204640F2DC511C6082
S3150800206C01F062F94FF480710C2001F029F840F266
S3150800207CEC51092001F024F841F21C11084601F034
S3150800208C39F8082006F0F0FB4FF0FF3005F0D2FACD
S3150800209C0B4805F0C5FA06F029FD08F0C9FCBDE8A1
S315080020AC104004F045BF00BFA0470120ECE601082C
S315080020BCB11F0008091E0008D4460120DC46012081
S315080020CC01400A02704770470146FE224D200DF06A
S315080020DCA5BD00BF2DE9F84F8E4D0A20DFF868C262
S315080020EC2B68DFF8688243F087038B4FDFF8609222
S315080020FC2B60DCF80030894E23F0C00E884C8949D9
S3150800210C4EF0800E884A894BCCF800E0D8F800E0EF
S3150800211CDFF840A22EF0080EDFF83CB2C8F800E053
S3150800212CD7F800E0DFF834824EF0C00EC7F800E0AE
S3150800213CD9F800E02EF0C00EC9F800E0D6F80090E9
S3150800214CDFF81CE229F4704949F42049C6F80090D6
S3150800215CD4F8009029F00F0949EA0009C4F8009050
S3150800216CD1F8009029F00309C1F80090D2F8009034
S3150800217C49F00F09C2F80090D3F8009029F00F091E
S3150800218CC3F80090DAF8009029F0FF0949F0AA097B
S3150800219CCAF80090D4F8009029F07F6949F02A69AA
S315080021ACC4F80090D1F8009029F47059C1F8009041
S315080021BCD2F8009049F07F69C2F80090D3F80090E5
S315080021CC29F07F69C3F80090DBF8009009EA080843
S315080021DCDFF8909148EA0E0EDFF88C81CBF800E018
S315080021ECD4F800B0DFF884E12BF4406B4BF4006BA9
S315080021FCC4F800B00C68DFF878B124F020040C6041
S3150800220C01F5C0511468043144F44064146002F5B5
S3150800221CC0521C68183224F440641C60DAF800308A
S3150800222C434C23F4700343F42003CAF80030D9F85E
S3150800223C003023F0030343F00203C9F80030D8F842
S3150800224C003043F00303C8F80030DEF8003023F002
S3150800225C0F030343CEF80030D9F8003023F03003CF
S3150800226C43F02003C9F80030D8F8003043F03003A7
S3150800227CC8F80030DEF8003023F4706343F42063AA
S3150800228CCEF80030DBF8003023F4407343F40073C7
S3150800229CCBF800300B6843F440730B60136823F4D7
S315080022AC702343F420231360DCF8003023F44063D6
S315080022BC43F40063CCF800303B6843F440633B605E
S315080022CC336823F4700343F4200333602B6843F01C
S315080022DCC0432B600CF054FF23680A2043F00053CC
S315080022EC23600CF04DFF23680A2023F0005323606B
S315080022FC0CF046FF0F4810F0D1F84FF480510E48F9
S3150800230C10F080FD0D4A0E490E48BDE8F84F10F046
S3150800231C61BD00BF30380240080002402000024070
S3150800232C0004024004040240080402400C04024063
S3150800233C103802401CE70108A0AD012051F1000835
S3150800234C6DF10008D5200008000002400400024088
S3150800235C0C0002402004024024040240FF0000FF47
S3150800236C00AAAA00000802400808024020080240F9
S3150800237C001C02400146002008B50CF0DBFF03499F
S3150800238C0020BDE808400CF0D5BF00BF00E00108EE
S3150800239CFFF7F0BF10F0020F1EBF30F8023B5A4190
S315080023AC0139103914D32DE9F003B0E8F813D21813
S315080023BC62416A4172417A4152EB080252EB0902B8
S315080023CC52EB0C0242F100021039EED2BDE8F003D2
S315080023DC103100314FEA51034FF0060C0CFB03FC8D
S315080023ECA1EB4301154BA3EB0C0343F00103184770
S315080023FC50F8043B5A4150F8043B5A4150F8043BF8
S3150800240C5A4150F8043B5A4150F8043B5A4150F88B
S3150800241C043B5A4150F8043B5A4142F1000211F070
S3150800242C010F03D00388D21852F100024FEA324347
S3150800243C1A444FEA12421046704700002624000838
S3150800244C0C490B68834214D010B4D0E900245CB153
S3150800245C226002B1546003B15860002203605DF833
S3150800246C044B0860426070471346002AF5D0546046
S3150800247CF1E77047B8BD012070B591F822300C46CB
S3150800248C05467BB994F8233013B9012384F8233015
S3150800249C6B6804F11C02284608215B69BDE870408C
S315080024AC1B691847002381F822300CF075FD024B86
S315080024BC9B6818446061E5E7B8BD012009B112F0C4
S315080024CCB3B812F0DAB800BF2DE9F041904642686D
S315080024DC05461C2480684FF4807EB2F872204FF0B3
S315080024EC080C2C8240F2064784180026EC6020F86B
S315080024FC02E004EB0C00A4F802C00622E1711946AE
S3150800250CA780A671DDE90676FFF7D8FF414604F1E8
S3150800251C0E000422FFF7D2FF04F112003146062200
S3150800252CFFF7CCFF04F1180039460422FFF7C6FF63
S3150800253C6B68064A28465B694FF4C161002E18BFC2
S3150800254C32461B69BDE8F041184700BFA8DD0108F3
S3150800255C34220021014812F090B800BFB8BD012002
S3150800256C70B5154E746844B123687360282200212F
S3150800257C204612F082F8204670BD34680CB918E073
S3150800258C1C462368002BFBD1206930B1056805F081
S3150800259C61FB2846002DF9D123680021626884F86E
S315080025AC241022B11360002BE0D05A60DEE73360AA
S315080025BCF9E72369FFDE00BFB8BD012083682DE962
S315080025CCF043DC8983B0B4F5C16F0CD0812C03D0F1
S315080025DC032003B0BDE8F0835C8AB4F5C16FF7D16C
S315080025EC03F1140901E003F110091C4B17460422E8
S315080025FC884693F88A4109F1180106460DEB020044
S3150800260C5D6812F011F804EB041299F8073001987A
S3150800261C6FF0870105EBC2052C3501E0013C0AD0A9
S3150800262C022BD5D0012BF9D101FB04F2AA58824210
S3150800263CCED0013CF4D14FB1B8F1000F06D03046DC
S3150800264C05F0D2FA204603B0BDE8F083304605F013
S3150800265C01FB002003B0BDE8F08300BFECBD0120F0
S3150800266C10B584B0044640200391002105F09CFA6D
S3150800267C70B1094A03A9446004F17603019204F186
S3150800268C2C0200910121FFF71FFF002004B010BD9A
S3150800269C4FF0FF30FAE700BFA8DD01082DE9F0413D
S315080026AC324F3C68002C38D04FF000080CE0BD695E
S315080026BCA369AB4201D8002B45D10A359D422ED9C8
S315080026CC0133A361344646B3E268266892F87D3036
S315080026DC20692BB30028EAD1606900F0E7FD0028D1
S315080026EC37D194F82230002BECD1BB686069A0EB8B
S315080026FC530000F0DBFD0028E4D094F82320002AD0
S3150800270CE0D0531C012ADBB229D00B2B28BF01239E
S3150800271C84F823303446002ED6D1BDE8F0812069E2
S3150800272C28B1056805F096FA28460028F9D162689A
S3150800273C84F82480236882B1136003B15A607B68DD
S3150800274C23607C60BEE71046A168FFF789FFA36982
S3150800275CB3E7D4E90032002AEED13B60EDE7D4E9C1
S3150800276C0210FFF77DFF0223D2E700BFB8BD012098
S3150800277C2DE9F8431A4D0F46114614468046FFF7C5
S3150800278C6FFF0646286810B909E0006838B18368F7
S3150800279C9C42FAD1FFF754FE3046BDE8F883FFF7A2
S315080027ACDFFE8146C0E9024837B1002201233A60B0
S315080027BCC9F8107089F824300CF0EEFBEB682A681F
S315080027CC1844C9F814000AB1C2F804900023C9F8D1
S315080027DC00203046C5F80090C9F80430BDE8F883E7
S315080027ECB8BD01202DE9F04343680746C56889B092
S315080027FCD868062205F108097630494611F08AFE92
S3150800280C28B9384605F026FA09B0BDE8F083042243
S3150800281C05F1180104A811F007FF7B68454A93F8DF
S3150800282C7F40D3F814C05068234692F88AE104997D
S3150800283C05E001339E4598BF0023A3420BD003EB5A
S3150800284C031200EBC20256696645F2D1D66A8E426D
S3150800285CEFD11C467A60DFF8E080D8F8243013B143
S3150800286C394620469847D8F8203023B120463946B1
S3150800287C98470028C5D0042205F10E0103A811F0CB
S3150800288CD3FE98F83030002B33D0049B7C68E26A70
S3150800289C9A42B6D1EB79012B30D0022BB1D1039BDE
S315080028ACD8F800401CB9ACE72468002CA9D0A2685B
S315080028BC9A42F9D12046FFF7C3FD4946062204F190
S315080028CC1C0011F0B1FE0CF067FBD8F808200021AB
S315080028DC2369024484F823106261002B91D021618C
S315080028EC1D6818462146FFF7C7FD2B46002DF7D164
S315080028FC87E7DDE903239A42C8D1D1E7D7F80C80DC
S3150800290C05AD06AE042208F10E01284611F08CFE20
S3150800291C08F108013046062211F086FE384604F105
S3150800292C760304F12C020221CDE90056FFF7CCFD03
S3150800293C6AE700BFECBD0120B8BD012030B5204CBC
S3150800294C83B0A3680BB103B030BD1E491E4800F016
S3150800295CB5FC63690BB90823636147F230514FF430
S3150800296CFA700822032340F6B835A1602061642169
S3150800297C1648E560C4E9062300F0F4F9144815492D
S3150800298C04F042F9606900EB8000C00004F0ACFF6B
S3150800299C0028D8D0002365690193019B9D42D2D9A2
S315080029AC616800E01046019B0246013342F8281B79
S315080029BC01460193019BAB42F4D3606003B030BD72
S315080029CCB8BD01205D250008A0BD0120A926000878
S315080029DCE0BD0120C925000890F87D3003B9704781
S315080029EC0A460021FFF7C4BE0C4B10B51C6814B977
S315080029FC0FE024686CB1A3689842FAD12046FFF719
S31508002A0C1FFD04F11C03223413F8012B1AB9A34237
S31508002A1CFAD1002010BD012010BD00BFB8BD0120A1
S31508002A2C074B10B51C6814B907E024682CB1A368C9
S31508002A3C9842FAD12046FFF703FD204610BD00BF89
S31508002A4CB8BD0120FFF718BD10B590F87D4034B914
S31508002A5C11B1084605F0FEF84FF0FF3010BDBDE881
S31508002A6C1040FFF785BE00BFD0E900321AB11360DB
S31508002A7C03B15A60704701490B60F9E7B8BD0120EC
S31508002A8C024B5A6802605860704700BFB8BD0120F7
S31508002A9CFFF766BD044A136803B15860002103604A
S31508002AAC10604160704700BFB8BD01200A4A10B4D7
S31508002ABC94686CB11268531E5242194400EA020318
S31508002ACC01441846C91A23465DF8044B11401847A9
S31508002ADC5DF8044B704700BFA8BD0120014B186870
S31508002AEC704700BFA8BD01202DE9F0411E4F97F88D
S31508002AFC8A317C68002B34D000261C4DB0460EE07B
S31508002B0C6B78013BDBB26B706B7813B9002080F3E2
S31508002B1C1188013697F88A318834B34221D9A369CA
S31508002B2C9A69002AF5D0802072B680F3118862B6AD
S31508002B3C00BF00BF6B78A16E0133DBB26B70002946
S31508002B4CDED02B6A591A0029DADB94F88510C4F8FA
S31508002B5C68800129D4D184F8858094F87F00904741
S31508002B6CCEE7BDE8F08100BFECBD0120C8C101204D
S31508002B7C2DE9F843184E00EB001088469146776805
S31508002B8C07EBC00707F1760011F04EFD96F88A316F
S31508002B9C7468ABB1002504E096F88A318834AB42E8
S31508002BAC0ED9E3680135BB42F6D104F176004A46E4
S31508002BBC4146883411F038FD96F88A31AB42F0D884
S31508002BCC96F88C310BB9BDE8F883FB6893F87F004F
S31508002BDCBDE8F84303F0FCBCECBD0120104AF8B57F
S31508002BEC00EB0013546804EBC30494F87D308B4255
S31508002BFC11D0CEB2054684F87D6069B1094B94F8BC
S31508002C0C7C705C693CB1236832463946284698473D
S31508002C1C6468002CF7D1F8BD0CF0D0F9EEE700BFCC
S31508002C2CECBD012090BF012038B504460D46064878
S31508002C3C0BF078FD29462046002204F069FEBDE813
S31508002C4C38400CF0C5B900BF68C20120012204F057
S31508002C5C5FBE00BF70B54468054694F87C3023B354
S31508002C6C94F87D300BB3A36AE6681BB1018ADA695E
S31508002C7C0A44DA61636928465B699847A36A10BBFC
S31508002C8C13B15A6A01325A6206F14000294603F01A
S31508002C9CCFFFB36996F87F005B68984720B1A36AA3
S31508002CAC13B1DA6A0132DA6270BD284604F0D2FF33
S31508002CBCA36A2BB19A6A4FF0FF3001329A6270BD43
S31508002CCC4FF0FF3070BD002BDED01A6A01321A6243
S31508002CDCDAE700BF064B01EB01115B6803EBC10396
S31508002CEC1B6C13B1DA681B8A02601846704700BF62
S31508002CFCECBD012008B5064B00EB00105B6803EB36
S31508002D0CC000403004F01CF8BDE8084004F06CBF65
S31508002D1CECBD012010B50346802072B680F31188ED
S31508002D2C62B600BF00BF0D4C184663780133DBB2A0
S31508002D3C6370FFF7DFFF6378013BDBB26370637880
S31508002D4C13B9002080F31188054B93F88D3103B91C
S31508002D5C10BDBDE810400CF031B900BFC8C1012048
S31508002D6CECBD0120F0B4114F7D6F002D1BDDBB6F40
S31508002D7C984216D02E463A46002302E0946F8442B7
S31508002D8C0FD001330C32AB42F8D106EB4606084B92
S31508002D9C013507EB86061B6A7D67C6F88030C6E9DF
S31508002DAC1E01F0BC70470026EFE700BFECBD012002
S31508002DBCC8C1012010B50346802072B680F311886D
S31508002DCC62B600BF00BF094C184663780133DBB204
S31508002DDC6370FFF7CDFE6378013BDBB263706378F3
S31508002DEC13B9002080F3118810BD00BFC8C101209B
S31508002DFC70B50546802072B680F3118862B600BF9E
S31508002E0C00BF0E4C08460E4E05EB05156378062AD0
S31508002E1C716803F1010328BF062201EBC501DBB279
S31508002E2C7631637011F000FC6378013BDBB263709A
S31508002E3C637813B9002080F3118870BDC8C10120CE
S31508002E4CECBD0120054B00EB001000225B6803EB80
S31508002E5CC000C0E90B224263704700BFECBD0120DD
S31508002E6C2DE9F04114460546084608F0B1F8074620
S31508002E7C204605EB051808F0ABF80D4B06460D4831
S31508002E8C5B6803EBC8080BF04DFC0B4BC8F82C70B1
S31508002E9C5C68C8F830603CB1236832463946284627
S31508002EAC98476468002CF7D1BDE8F0410CF090B84F
S31508002EBCECBD012068C2012090BF0120D0E90112A7
S31508002ECC0078FFF7CDBF00BF0A4601460020FFF782
S31508002EDCC7BF00BF70B50C4C00EB00130E460B4871
S31508002EEC6468154604EBC3040BF01CFC1EB1E06ABF
S31508002EFC08F06EF830601DB1206B08F069F8286090
S31508002F0CBDE870400CF064B8ECBD012068C2012025
S31508002F1C10B50446084608F05BF8044B04EB041499
S31508002F2C5B6803EBC404606310BD00BFECBD0120F5
S31508002F3C044B00EB00105B6803EBC003586B08F0FE
S31508002F4C47B800BFECBD0120044B00EB00105B68D2
S31508002F5C03EBC003D86A08F03BB800BFECBD0120F0
S31508002F6C2DE9F84347480BF0DDFB474AD469002C9A
S31508002F7C7ED0802072B680F3118862B600BF00BF7F
S31508002F8C424F00217B78D1610133DBB27B707B78B1
S31508002F9C013BDBB27B707B7813B9002080F3118878
S31508002FACD4E90053A06898472046D4E903139847F8
S31508002FBC2C46002DF4D1364D4FF0000905F58478D2
S31508002FCC95F88D311BB185F88D91EB6E9847404677
S31508002FDC03F084FE0446F8B1466873695B69984742
S31508002FECB36A00283AD013B19A6801329A60AB6D6D
S31508002FFC1BB120469847002836D1636820465B6982
S3150800300CDB68984795F88D31002BDCD1404603F0E8
S3150800301C65FE04460028DFD16D6F3F6A55B31C4C1C
S3150800302C4FF47A76D4F88030DB1B002B0ADCA36FBE
S3150800303C9847D4E91F321A44D11B0029D8BFFA186D
S3150800304CC4F880209E4204F10C04A8BF1E46013D1C
S3150800305CE8D10BF0BDFF3046BDE8F883002BC6D08F
S3150800306CDA680132DA60C2E7204604F0F3FDA7E716
S3150800307C064FA0E74FF47A760BF0AAFF3046BDE868
S3150800308CF88300BF68C2012090BF0120C8C1012087
S3150800309CECBD012008B5FFF763FF0BF083FFFAE7D9
S315080030AC38B50C4649080546FFF774F9E30706D503
S315080030BC2C4414F8013C1844030C13FA80F038BD60
S315080030CC0B4AD2F8043130B4012B03F10104C2F8CF
S315080030DC04410BD81E33D2F8004102EBC305A142BA
S315080030EC42F83300696088BFC2F8001130BC7047DB
S315080030FCECBD0120014BC3E90A01704704C101204C
S3150800310C2DE9F84F4B4F00EB00137D6805EBC30513
S3150800311CD5E9186396B982B995F88220994285F84B
S3150800312C81207DD095F88360D6B1013EF6B285F83C
S3150800313C8360AEB10020BDE8F88F164695F884205A
S3150800314C994285F8832002D1EB6DB342F2D095F8FB
S3150800315C81302BB1013BDBB285F88130002BE9D1EC
S3150800316C16F100096966EE65884697F88A3118BF24
S3150800317C4FF001090446984202D24946FFF72EFD44
S3150800318CAB6A13B12C4A126A1A60DFF8B0A0DAF8E7
S3150800319C00301BB13246414620469847DAF80CB047
S315080031ACBBF1000F0AD0DBF8003032464146204608
S315080031BC9847DBF804B0BBF1000FF4D197F88A31C5
S315080031CC7C6883B14FF0000B63691B7E23B9A5425B
S315080031DC02D0E368AB4215D00BF1010B97F88A3194
S315080031EC88345B45F0D8DAF8084044B127684B4672
S315080031FC324641462846B8476468002CF6D1012069
S3150800320CBDE8F88FC4F864804946E6655846FFF76A
S3150800321CE5FCA36A084A002BDED0116A1960DBE7C5
S3150800322CEB6D002B86D095F88360002E7FF47DAF6E
S3150800323C96E700BFECBD0120C8C1012090BF012054
S3150800324C38B5044606480D460BF06CFA054B256056
S3150800325C5A6962605C61BDE838400BF0B9BE00BFC4
S3150800326C68C2012090BF0120024B5A69C0E90012BE
S3150800327C5861704790BF0120034B00EB00105B6848
S3150800328C03EBC003D86D7047ECBD0120064B00EB71
S3150800329C00105B6803EBC003D86D18B1D86A003010
S315080032AC18BF0120704700BFECBD0120024B1B6AFA
S315080032BC181AC043C00F7047C8C10120024B1A6DBB
S315080032CCC0E9002118657047ECBD012030B40346EF
S315080032DC0D464AB1826E2AB9012193F885008842B7
S315080032EC0A4606D030BC7047114693F885008842CA
S315080032FCF8D181F0010493F87F00114683F88540D4
S3150800330CAB6930BC184700BF064B0A4616215B68EA
S3150800331C10B400EB001403EBC4035DF8044B9B6973
S3150800332C5B691847ECBD0120064B00EB00105B6887
S3150800333C03EBC000B0F874308B4288BFA0F8741049
S3150800334C704700BFECBD0120044B00EB00105B6816
S3150800335C03EBC003B3F87400704700BFECBD012043
S3150800336CF0B51A4F064685B0786897F88A51E0B1D9
S3150800337CAC4605EB051400EBC404B4F87400A16163
S3150800338C08B9A4F87420A4F872300CF101020021D3
S3150800339C28460A9B2660E460636184F87F5084F8AB
S315080033AC7C1087F88A2105B0F0BD97F88901019140
S315080033BC00EB0010C000CDE9022304F095FA97F84B
S315080033CC8AC17860039BDDE90112D2E7ECBD0120C6
S315080033DC014B93F88A017047ECBD01201E4BF0B5E2
S315080033EC93F88A51B5B35A688E46002400F0020C3D
S315080033FC134693F87D7001341E466FB193F87C70B2
S3150800340C57B1196B41B1DF6ABCF1000F00D01FB17F
S3150800341C8EEA07070F421BD0AC4203F18803E8D1AA
S3150800342C00F00200002392F87D100133164651B1C4
S3150800343C92F87C1039B108B1D16A21B1516B39B9FE
S3150800344C116B013104D0AB4202F18802EBD1002694
S3150800345C3046F0BD2E46FBE7ECBD01200F4B70B491
S3150800346C93F88A41C4B15B6800F00205002240F269
S3150800347C0116596901321846096831B10DB1D96A74
S3150800348C19B1B3F87C10B14204D0944203F1880305
S3150800349CEFD1002070BC70472046FBE7ECBD01203D
S315080034AC38B50D46044603F02BFAB8B1B5F86E20BC
S315080034BCB5F87030B5F86C10A4F87030A4F86C1028
S315080034CCA4F86E20636995F87D2084F87D201B7E10
S315080034DC1BB9EA6D6B6EE265636638BD062205F1AB
S315080034EC760104F1760011F09FF8DFE72DE9F84331
S315080034FC364E96F88A317768002B59D0A7F188048E
S3150800350C00254FF00108883494F88630002B4AD1F0
S3150800351CA3691521D6F87C2128465B699847D4F807
S3150800352C763033B1A36904F176020F2128465B691C
S3150800353C9847A36928461B6898476E2833D004F128
S3150800354C760304F17C0184F8868001E08B4231D045
S3150800355C13F8012B002AF9D0A4EB0709736800228B
S3150800356C042128464B449B695B699847B4F86C3030
S3150800357CB0F1FF3F08BF0020B4F86EC0B4F8702055
S3150800358C0343E16823EA0C03A14243EA0203A4F8C5
S3150800359C6C3002D02046FFF783FF284604F05AFA0F
S315080035AC284603F015F8013596F88A31AB42AADCA1
S315080035BCBDE8F883A4EB07097268082128464A4433
S315080035CC936976325B699847C8E700BFECBD012062
S315080035DCF0B5414D85B0414B95F88C412B600CB13B
S315080035EC05B0F0BD0BF0AEFC1F2103233C4A00913D
S315080035FC02A806210CF06EF93A494FF4107208230A
S3150800360C6320C5F88411A5F88821A5F87231ADF8A0
S3150800361C0C00FEF70FFD04F03BFBD5F8F830D5F897
S3150800362CF000184404F0E0F82F480BF07BF8FFF78D
S3150800363C5DFF0BF0CDFC696F00290F4647DDA86FBF
S3150800364C2A4EB04246D023462A4602E0946FB4422C
S3150800365C13D001330C328B42F8D1013107EB4707F3
S3150800366C234A4FF47A7305EB87070029106A6967B2
S3150800367CBE67C7E91F3027DDA86F1E4CA04215D0C0
S3150800368C154A002302E0906FA0420FD001330C328A
S3150800369C8B42F8DB164A03EB4303106A01316422AA
S315080036AC05EB830369679C67C3E91F20124A01234C
S315080036BC146985F88C31002C92D023689847646875
S315080036CC002CFAD105B0F0BD00230A4CE3E72746D7
S315080036DC064EC2E7074CD3E7ECBD0120B0DD010866
S315080036ECC8DD01080100014068C20120093700083D
S315080036FCC8C10120F52A000890BF0120F8B5154E5F
S3150800370C96F88F3103BB96F88A317468DBB10025BD
S3150800371C2F4694F8863083B1A36928461B6903B1F2
S3150800372C984794F87E3028463BB1A36984F87E7096
S3150800373C1B689847284602F04BFF013596F88A31E4
S3150800374C8834AB42E5D8F8BD002386F88F31FFF7ED
S3150800375CCDFED8E7ECBD0120034B00EB00105B68EF
S3150800376C03EBC00359607047ECBD0120084A92F878
S3150800377C8A11814209D9526800EB001302EBC30384
S3150800378C5B6803B11847184670476FF01A00704704
S3150800379CECBD0120084A92F88A11814209D952686F
S315080037AC00EB001302EBC3039B6803B118471846DA
S315080037BC70476FF01A007047ECBD01200E4B1B6F5B
S315080037CC4BB1042100B583B00DEB01009847019865
S315080037DC03B05DF804FB0949184620220B6A13F05E
S315080037EC010F4FEA40004FEA530318BF40F001009F
S315080037FC013AF4D1704700BFECBD0120C8C10120C5
S3150800380C59B10139431E084401E0834205D013F827
S3150800381C012FFF2AF9D0002070470120704700BFFE
S3150800382C084B0246D3F8F4108842D3F8FC1094BF20
S3150800383CD3F8580100208A4202D8D3F85C311844D0
S3150800384C704700BFECBD012038B58B1C044601211E
S3150800385C1546184604F0A8F950B1064A04EB0414A8
S3150800386C83685168023301EBC404C3602B6044605F
S3150800387C38BD00BFECBD01200D4B00EB00105B689A
S3150800388C03EBC000836A30B40C4613B15968114473
S3150800389C5960B0F87250931CA16800225B1B6060DB
S315080038AC0D44204623821146E56030BC03F034B83B
S315080038BCECBD0120F8B50F4B06460D469C6964B164
S315080038CC174601E0246844B163683A4629463046EF
S315080038DC98470328F6D00020F8BD2DB13146064886
S315080038EC03F0D2F90120F8BD3146034803F0A0F9DC
S315080038FC0120F8BD90BF0120F4BE012038B504465E
S3150800390C06480D460AF00EFF054B65609A6922605B
S3150800391C9C61BDE838400BF05BBB00BF68C2012058
S3150800392C90BF0120034B93F88D3103B970470BF008
S3150800393C45BB00BFECBD0120F8B50D461746002166
S3150800394C142204461E4610F098FE069BE660236178
S3150800395CC4E90157802072B680F3118862B600BF9D
S3150800396C00BF0C4D0C4A6B78D1690133DBB26B7016
S3150800397C71B1136A1C6014620BF020FB6B78013B67
S3150800398CDBB26B706B7813B9002080F31188F8BD25
S3150800399CD461F0E7C8C1012090BF0120112804D8D2
S315080039AC0230054B12B143F82010704753F820200B
S315080039BC002AF8D0704700BFECBD012038B50F4C73
S315080039CC0546206810B100EBC51038BD0C4B93F8B2
S315080039DC8901C00103F088FF03462046094940F8CF
S315080039EC083BFFF741FC07F023F807490748FFF7A0
S315080039FC65FC206800EBC51038BD00BFBCBF0120B4
S31508003A0CECBD01205D3E0008553A0008ECBF0120CC
S31508003A1CF8B50D4617460646FFF7D0FF0022C36DCC
S31508003A2C0560826013B1294630469847054B5C6899
S31508003A3C3CB123683A462946304698476468002CB8
S31508003A4CF7D1F8BDBCBF012030220021014810F087
S31508003A5C14BE00BFBCBF012070B50446FFF7AEFF0D
S31508003A6C036B03B970BD0A4A04EB0414866B00F1A8
S31508003A7C4C015268056C02EBC4040822E36204F19B
S31508003A8C3800C4E90C65BDE8704010F0CDBD00BF28
S31508003A9CECBD0120F8B5044608460E461746FFF756
S31508003AACEBFB63680546834209D070B10022E36AD2
S31508003ABC626143BB012100223046FFF7A9FF60690A
S31508003ACC97B958B965602846F8BD236913B31C4ADB
S31508003ADC126AD3182ED1012060612FB9FFF7E6FBC5
S31508003AEC20B965602846F8BDFFF7E0FB002294F87C
S31508003AFC78306261C3B1012BE4D13046FFF7ACFFD5
S31508003B0C65602846F8BD2368063B022B8CBF01214D
S31508003B1C0221D0E70A4B186A013808BF4FF0FF306C
S31508003B2C6061002FDAD0DFE7F0B2FFF78BF965603A
S31508003B3C2846F8BD18466361002FCFD0D4E700BFDE
S31508003B4CC8C101202DE9F043484D904683B006467E
S31508003B5C95F82F2089461F46002A46D02C683046F1
S31508003B6C04EBC614C4F86890C4E91887FFF784FBFD
S31508003B7C3F4A06EB06136060526802EBC303D96A28
S31508003B8C002954D1E36A93B194F87A30002230466E
S31508003B9C002B14BF01210221FFF73AFF95F82E20BE
S31508003BAC72B1013285F82E2003B0BDE8F0830022ED
S31508003BBC01213046FFF72CFF95F82E20002AF0D16C
S31508003BCC2C4944231046CDE90012432106F08AFEFF
S31508003BDC296A28612848FFF7C5F895F82E2001327E
S31508003BEC85F82E2003B0BDE8F083FFF7E7FD234BDD
S31508003BFCEA6903446B6162B94FF47A62AB69EA61AC
S31508003C0C0BB90423AB6195F82D3013B9012385F84C
S31508003C1C2D302B6A13B94FF47A732B621849042288
S31508003C2C0123A96285F82C2085F82F3096E7186BA6
S31508003C3C03F138075B6B0822C4E90F33C4E90B118F
S31508003C4CC4E90D00394604F1440010F0EDFC394680
S31508003C5C082204F14C0010F0E7FC94F87730002B9E
S31508003C6C90D1F0B2FFF7EEF88CE700BFBCBF01208D
S31508003C7CECBD0120093F0008AD4600085544332227
S31508003C8CD0DD0108184A38B500EB0013546804EB6C
S31508003C9CC304FFF793FE0546C06A6B6BEA6BC4E96F
S31508003CAC0B03626363B195F87B3003B138BD05F13C
S31508003CBC440104F138000822BDE8384010F0B4BCC1
S31508003CCC07F086F9002806DB4FF07F4007F080F9ED
S31508003CDC20636863E7E700F040430448B3F1004FFC
S31508003CEC18BF6FF0FF00F1E7ECBD01200000FFFFE5
S31508003CFC2DE9F04F4FF0000A85B00D461746CDF862
S31508003D0C0CA001F59C79039BDFF840811844FFF75A
S31508003D1C55FE4FF0FF3300F14406C0F834A0C0F846
S31508003D2C3CA00446C36151460822304610F0A5FC57
S31508003D3C2846484511D8014611F8012BFF2A11D0FF
S31508003D4CA2B905F2391005E013F8012BFF2A09D0A0
S31508003D5C72B9194688420B46F6D14FF0FF3005B0BA
S31508003D6CBDE8F08F002005B0BDE8F08F0B46014684
S31508003D7C013A01F1020A93F800B03A2A24D8DFE88E
S31508003D8C02F01E234D23232D23232323232323230E
S31508003D9C5F2323232323232323232323232323239D
S31508003DAC23232323232323232323232323232323C9
S31508003DBC2323232356232323232323262600504653
S31508003DCC07F0F2F86063F8600AEB0B00B1E7D3F87A
S31508003DDC01300AEB0B001BBA0393AAE7BBF1030FDE
S31508003DECF2D9314600225046ABF1040B0AF1040A0B
S31508003DFC5FFA8BFBCDE9002107F0D6F8009A0199FA
S31508003E0C82F00103012241F8040BBBF1030F94BFA6
S31508003E1C002303F00103002BE5D1D5E7BBF1030F13
S31508003E2CD2D9504607F0C0F8E063B860CCE7D3F8AF
S31508003E3C01301BBA434501D903934346E361C3E7F3
S31508003E4CC7F800A087F810B0BEE700BF80994000FD
S31508003E5C01B1704770B505460C46FFF7AFFD06462F
S31508003E6C224628460121FFF7D3FD30462946012272
S31508003E7CBDE87040FFF70EBEF8B50D681E46044641
S31508003E8C069F3DB100230B60137853B1012B01D16A
S31508003E9CFFF7E2FD3A4631462046BDE8F840FFF703
S31508003EACB7BDC0B2FEF7CEFF3A4631462046BDE84E
S31508003EBCF840FFF7ADBD00BF4B1C30B5154685B0B5
S31508003ECC04460CD00C4B04EB04140095432258689A
S31508003EDC442300EBC40006F073FC05B030BD039117
S31508003EECFFF76CFD03680399063B022BEAD9EB7DB9
S31508003EFC43F00203EB75E5E7ECBD012043682DE9B9
S31508003F0CF04F93F87FA007468BB0B0F81080504658
S31508003F1CFFF754FDFD680646142255F8103C05A813
S31508003F2C002105F1F009039310F0A7FB95F8F03082
S31508003F3C05F50A74362B00F09780FF2B0BD04846F4
S31508003F4C002B5BD10130844205D90378362B00F05F
S31508003F5C8C80FF2BF4D14FF0000BB8F1EB0F40F22D
S31508003F6C96802B78022B40F09280D5F8EC80A648E8
S31508003F7C07F02EF8804540F08A807968062205F10C
S31508003F8C1C00763110F0C6FA804600287FD1F16EF7
S31508003F9C95F8F02071B13D2A7FD0FF2A18D0134628
S31508003FAC48469BBB0130A04204D203783D2B75D002
S31508003FBCFF2BF6D1352A2DD0FF2A09D04B460ABB42
S31508003FCC0133A34204D21A78352A24D0FF2AF6D113
S31508003FDC494605AA5046FFF78BFE2B695046F362F5
S31508003FECFFF750FE05AA50460621FFF711FD4FF0C4
S31508003FFCFF33336240460BB0BDE8F08F437802338B
S3150800400C1844A0E75A7802321344DAE743780233A5
S3150800401C1844C8E74B4696F87620002A37D09A7883
S3150800402C072A04D80123934013F09A0F2FD133682B
S3150800403C013B0A2B7CD801A151F823F09B400008C0
S3150800404C9B40000891400008C140000881400008C8
S3150800405C9B40000881400008814000083D4100084B
S3150800406C9B400008014000084846023006F09CFFB9
S3150800407C834672E7B36D5B4509D1736D13B103992A
S3150800408C8B4204D1052A5ED0062A00F084804FF0B4
S3150800409CFF3840460BB0BDE8F08F4846336F427880
S315080040AC9A42F4D1023010F035FA0028EFD195F87F
S315080040BCF0207FE7022AEAD10399F2680B46BBF196
S315080040CC000F18BF5B46B365EB78002B6B6808BF0F
S315080040DC00219A4271652BD1494605AA5046FFF72D
S315080040EC07FE804620BB2A69002A62D0474B0FFA86
S315080040FC8AF1474C1B6801EB0110F26203EBC11302
S3150800410C06926268D96A02EBC000FEF765FC504657
S3150800411C05AA0A21FFF77CFC40460BB0BDE8F08FD8
S3150800412C042022464FF0FF3198705046FFF7C4FE24
S3150800413C4FF0FF38504605AA0121FFF769FC4046A7
S3150800414C0BB0BDE8F08F05AA49465046FFF7D0FDDF
S3150800415CF3695A1C2AD0DA085B08C2EBC202C6E914
S3150800416C0832039950462B4B0A461B6ABBF1000FC3
S3150800417C18BF5A46B362B265EB78002B08BF00210C
S3150800418C7165FFF77FFDF36A05AA5046062106936B
S3150800419CFFF73EFC2EE705AB504606F1790206F111
S315080041AC2C0100930123FFF767FE23E7C6E90833C2
S315080041BCD7E73F8A5046394606F07CFB044600286A
S315080041CCB6D0C6683A4607822946304610F02CFA0D
S315080041DC0122334606F50A7103F8F02B96F8F020FF
S315080041EC352A06D19CE701338B420AD21A78352A2E
S315080041FC96D0FF2A05D0002AF5D05A7802321344F5
S3150800420CF2E700239B70FFDE63538263BCBF012079
S3150800421CECBD0120C8C10120F8B506461046144667
S3150800422C0F460BF0ABF83368054621461C4602468A
S3150800423C04F8027B20462C445D7010F0F5F93460C6
S3150800424CF8BD00BF2DE9F04F064683B089461746E0
S3150800425CFFF7B4FB4FF409710446304606F02AFB07
S3150800426C002800F00582A36880460133A36006F097
S3150800427C2BFC4FF409720021054610F0FEF9012FAC
S3150800428C00F09281B9F1000F40F04981A84B06EB7A
S3150800429C061930465B6803EBC909FFF78FFB4FF429
S315080042AC967282460021284610F0E7F9A14B2B603E
S315080042BCDAF80030072B00F074819AF87C30D907AD
S315080042CC01D480236B81BAF874304846DAF80C208E
S315080042DC5BBA6A602B8102F013FB062209F17601A0
S315080042EC05F11C0010F0A0F9934806F071FE05F1D3
S315080042FCF002C5F8EC0094F8763000923BBB8F4A76
S3150800430CFF2105F1F103012F126A85F8F0100093CD
S3150800431CA26100F03A812268D11F012940F2F98086
S3150800432C94F87C20D20740F13981A16D5D1B424679
S3150800433C3046ADB2B5F5967F38BF4FF49675A8F8EA
S3150800434C1050FFF7B9FD002003B0BDE8F08F3521FA
S3150800435C012285F8F27005F1F30385F8F01085F85B
S3150800436CF120A06E009300283DD0236E002B00F0A0
S3150800437C3F810BF003F88146206E0AF0FFFF009A86
S3150800438C8246512109EB0003501C0090043311702E
S3150800439C8020009A002102F1010CCDF800C01370A0
S315080043AC4A46009B03F1010CCDF800C01870009B1F
S315080043BC581C00901970009B581C00901970009896
S315080043CCA16E10F031F900992E20524601EB090323
S315080043DC0133009301F809000098216E10F024F9B6
S315080043EC009B53440093E16E79B1009B3D20D4F8B1
S315080043FC70A09946524609F8020B484683F801A064
S3150800440C10F012F909EB0A020092012F00F09A80BB
S3150800441C23680A2B02D0023B032B0ED8E06A06F05F
S3150800442CD7FD009B00BA4FF0320C04219A1DC3F835
S3150800443C020083F800C059700092606B002840F0A7
S3150800444CFA80E06B002840F0E780DDF80090626C9B
S3150800445C002A40F0B280A36C7BB1934600980DF10C
S3150800446C040A51460422019310F0DEF8009B0BF166
S3150800447C040B0433009389F801B0E3694BB1009A35
S3150800448C1BBA33200421C2F80230931D10705170E8
S3150800449C0093DFF8ACC09CF82C30F3B1009B581C89
S315080044AC3722DCF8281000901A70009B9CF82C20F8
S315080044BC581C00901A709CF82C305BB10023009A9B
S315080044CC0133501C009011F8010B10709CF82C202D
S315080044DC9A42F4D8012F00F0BD8023681A1F012ACE
S315080044EC40F28C800A2B00F08980626E1AB13C214E
S315080044FC6846FFF791FE009BFF21104A581C009056
S3150800450C1970126A009BA2612268D11F01293FF615
S3150800451C07AFE16A072AE9603FF407AF00E7084AE4
S3150800452C00215369A4F87410591C5161E360ADE677
S3150800453CECBD01200101060063538263C8C101204A
S3150800454CBCBF0120626E1AB13C216846FFF764FEB7
S3150800455C009A33234FF0FF314FF004091370931D63
S3150800456CC2F8021082F80190E06A0093002873D111
S3150800457CDFF808C19CF82C20002A90D1581CFF2182
S3150800458C3D4A00901970136AA3612368042B04D062
S3150800459C002204213046FFF73BFA009B4FF0FF310F
S315080045ACC4E600236B818EE6344B5A69596A501C53
S315080045BCA4F874105861E26068E6009B06200DF1B9
S315080045CC040A0422591C4FF0040B0091514618702A
S315080045DC0098431C606C01901846009310F024F860
S315080045EC0098A36C04300090002B7FF43AAF42E796
S315080045FC02460C216846FFF70FFEF4E6A06D362737
S3150800460C06F0E6FC009B00BA04219A1D1F70C3F83D
S3150800461C02005970009268E706F0DAFC009B00BAB3
S3150800462C0321042203F10609C3F8020019705A7013
S3150800463CCDF800900BE706F0CBFC009B00BA4FF0C8
S3150800464C010C04219A1DC3F8020083F800C05970A6
S3150800465C0092F6E6009B91E706F0BAFC009A00BABF
S3150800466C322182F80190931DC2F8020011707FE77F
S3150800467C6FF01C0068E600BFC8C10120BCBF012052
S3150800468C10B50446FFF79AF9C36A33B120460322DC
S3150800469C0121BDE81040FFF7D5BD6FF01B0010BD1A
S315080046AC2DE9F04FDFF8F0A285B0B94EDAF82430D0
S315080046BC96F88A210133CAF82430002A7CD00024C3
S315080046CC42F2107B25467068204402F019F900283E
S315080046DC6CD07368234493F87C30002B66D0EF01BA
S315080046ECDAF8008058F8073008EB0709002B5DD07C
S315080046FC002229464846FFF7CDF9002856D058F827
S3150800470C0730013B0A2B51D8DFE803F0667306061F
S3150800471C067E95B666D75900DAF81820D9F8083007
S3150800472C1AB1013A934228BF13469AF82D10DAF8B3
S3150800473C1C2001B19A40D9F8180003931044FEF7CF
S3150800474CB5FD98B358F80720DAF818101046039BED
S3150800475C002940F0CC80042A00F0F280052A00F0EB
S3150800476CE780032A22D128460393FFF789FF039B88
S3150800477CDAF81820D2B1013A934200F00581DAF83A
S3150800478C1820013A9A4211D858F8070004280DD077
S3150800479C99F87C30D90709D5002309F1790209F172
S315080047AC2C01284600930923FFF766FB013596F87A
S315080047BC8A318834AB4286D805B0BDE8F08FD9F873
S315080047CC18005844FEF772FD0028EFD0002201218C
S315080047DC2846FFF71DF9E9E728460122002101358D
S315080047ECFFF730FD96F88A318834AB423FF66BAF4B
S315080047FCE2E72846FFF744FF0028D7D102460321F3
S3150800480C2846FFF705F9D1E7D9F820305A1CCDD040
S3150800481CD9F828204FF47A7000FB0320FEF746FDE2
S3150800482C0028C3D0284600220721FFF7F1F82846AE
S3150800483CFFF726FFBAE7D9F824704FF47A72D9F83D
S3150800484C283002FB07373846FEF730FD002859D1C9
S3150800485CD9F818004F4B3F1A9F428CBF7F084EF66B
S3150800486C60273844FEF722FD00289FD0032200213A
S3150800487C2846FFF7E7FC99E7D9F81C004FF47A7736
S3150800488CD9F8283007FB0030FEF710FD002883D135
S3150800489CD9F82820D9E9060307FB03F31B1A134496
S315080048AC3C4A93428CBF5B084EF660231844FEF7CD
S315080048BCFDFC00283FF47AAFD8E7D9F8180000F5C4
S315080048CCFA70FEF7F3FC00283FF470AFD9F82C0009
S315080048DCFEF78AF8074600BB014603222846FFF76F
S315080048ECB1FC3A4605212846FFF792F85EE70139EE
S315080048FC99422DD0042A23D0052A19D0032A7FF4ED
S3150800490C3EAF30E7284600220821FFF781F803223C
S3150800491C01212846FFF796FC48E704220021284681
S3150800492CFFF790FC00220B212846FFF771F83DE7AC
S3150800493C0322002128460393FFF784FC039B17E701
S3150800494C0122002128460393FFF77CFC039B0FE703
S3150800495C99F87CC000211CF0800FC9F8081003D008
S3150800496C8CF0010C89F87CC01CF0010F7FF40EAF9B
S3150800497C042AE5D0052ADBD0032A3FF4F4AE00233B
S3150800498C1046C9F8083001E758F80720F7E700BFC2
S3150800499CECBD0120BFD40100BCBF01202DE9F041BC
S315080049AC05460E4898460E46174609F0BBFE28469D
S315080049BCFFF704F803681BB1BDE8F0410AF008BB21
S315080049CC044643463A4631462846FFF7BBF80123C8
S315080049DC84F87630BDE8F0410AF0FABA68C20120CC
S315080049EC70B50446114809F09DFE2046FEF7E6FF11
S315080049FC03689BB10E4A044692F82E30013BDBB293
S31508004A0C82F82E3073B1802200212046E66D656847
S31508004A1C0FF033FE0023E665C4E90035BDE87040A7
S31508004A2C0AF0D6BA106906F011F8ECE768C201204C
S31508004A3CBCBF012010B50446054809F073FE204694
S31508004A4CFEF7BCFF04680AF0C3FA204610BD00BF87
S31508004A5C68C2012070B4104B2C245E6804FB00F469
S31508004A6C351968686B6A50B123B908E0013B00F147
S31508004A7C140004D002698A42F8D170BC7047D5E993
S31508004A8C0203091A8B4204D3305970BC00EB01108F
S31508004A9C7047002070BC7047F4BF0120124A2C23C3
S31508004AAC30B403FB00F35568EA185068546A0028BA
S31508004ABC18BF002C01D088420AD9EB58994211D05C
S31508004ACC1039C91A090901319068084430BC704775
S31508004ADC04EB840400EB84008142EED208690028BA
S31508004AECEBD0F3E70021EFE7F4BF012038B50B4C08
S31508004AFC0546606818B12C2303FB050038BD084B26
S31508004B0C93F8890100EB800300EB4300800002F068
S31508004B1CEBFE2C23606003FB050038BDF4BF0120B7
S31508004B2CECBD01201022002101480FF0A6BD00BFE4
S31508004B3CF4BF01202DE9F8431E4B4FF02C080F4605
S31508004B4CD3F8049008FB00F809EB08069AB97468C0
S31508004B5C8CB1756A03E0013D04F114040BD00622EE
S31508004B6C04F1080138460FF0D5FC0028F3D114B12E
S31508004B7C2046BDE8F883F66859F80840AEB100251A
S31508004B8C03E0AE4204F110040FD0E37B0135002B91
S31508004B9CF7D0062204F1080138460FF0BBFC0028B2
S31508004BACE6D0AE4204F11004EFD100242046BDE84D
S31508004BBCF88300BFF4BF012030B4144B2C2491F8B1
S31508004BCCF0205D6801F1F003332A04FB005013D082
S31508004BDCFF2A01F50A7108D052B90133994204D952
S31508004BEC1A78332A08D0FF2AF6D1006A30BC7047E7
S31508004BFC5A7802321344F1E7D3F80230026A18BA2B
S31508004C0C904230BC28BF1046704700BFF4BF012045
S31508004C1C2DE9F04F85B088464FF4097192469946AE
S31508004C2C06469DF8407005F045FE002800F0018107
S31508004C3C054605F049FF04464FF4097200210FF0AA
S31508004C4C1CFD4FF49672002120460FF016FDFF232B
S31508004C5C794A4FF4000184F82C3004F11C002260C8
S31508004C6C0622A16084F86C30C4F804A00E990FF0E3
S31508004C7CDBFC04F1EC030293B8F1000F51D041466A
S31508004C8C3046FFF70BFF06F0A3F920616B484FF08F
S31508004C9C010ADDF808B006F09BF9029B3521CBF822
S31508004CAC0000DA1D19719F7183F805A06B680292D2
S31508004CBCD86A06F08DF9029B00BA4FF0360C04211F
S31508004CCC9A1D022FC3F8020083F800C0597002928D
S31508004CDC29D0052F27D03422032183F807A09A71EF
S31508004CEC03F109021972531CFF21554806EB0616E7
S31508004CFC0293432311704422029940680C1B4FF00F
S31508004D0CFF3100EBC600A4B2B4F5967F38BF4FF45A
S31508004D1C96742C82009505F053FD002005B0BDE86D
S31508004D2CF08F4046AFE76B683327186B06F050F9DF
S31508004D3C029900BA012299FA89F38F71C1F8020017
S31508004D4C01F10C000A7004228B604A70CA71029039
S31508004D5CB8F1000F0AD0B9F1FF3F67D0394B4FF4C1
S31508004D6C7A721B6A02FB0933C8F80430364F4FF0C7
S31508004D7C2C0E342201207B684FF0030C0A7301F1C8
S31508004D8C0F020EFB0633487381F80EC0586902925F
S31508004D9C58B100BA4FF0040E01F1150281F80FC094
S31508004DACC1F8110081F810E00292D3E90610E1B9B6
S31508004DBC002833D10F9B002B95D03B68002B92D043
S31508004DCCA2EB04080021042203A81FFA88F80FF0A6
S31508004DDC54FC0F9A08F1FF3303A90392304602AA32
S31508004DEC3F689BB2B847029A7DE700280CBF04219E
S31508004DFC082102F1010C0620CDF808C01070029AA1
S31508004E0C501C02901170996951B9029ADB69002BF2
S31508004E1CD0D01BBA42F8043B0292CBE70421E8E750
S31508004E2C029A09BA42F8041B0292EFE7C8F80490F2
S31508004E3C9CE76FF01C0071E702010600635382635E
S31508004E4CECBD0120C8C10120F4BF01202DE9F047B3
S31508004E5CDFF8889084B0002699F88A318DF80060BE
S31508004E6C4BB3DFF87CA0374605E0013799F88A3151
S31508004E7C2C36BB421FD9DAF8043003EB060898F82F
S31508004E8C2920002AF1D0D8F80C209C59002AECD0FD
S31508004E9C002503E001351034AA42E6D9A37B002B82
S31508004EACF8D16068431E0333F4D8FEF7FFF928B926
S31508004EBCD8F80C20EEE704B0BDE8F0872146384652
S31508004ECCFFF7ECFD10220146684602F0BDFBA37BFA
S31508004EDC002BEDD1C4E90033EAE700BFECBD012095
S31508004EECF4BF01202DE9F04FDFF87CA42C278BB0FA
S31508004EFC044605F0E5FDDAF8043007FB00F73B44F9
S31508004F0C93F829304BB30023804620468DF8183089
S31508004F1C05F0DAFD90F8F0C0834600F1F00600F5CE
S31508004F2C0A75BCF1350F00F09C81BCF1FF0F0AD055
S31508004F3C3246614669B90132954204D91178352948
S31508004F4C11D0FF29F6D14FF0000948460BB0BDE841
S31508004F5CF08F517802310A44EEE74FF003094846C0
S31508004F6C0BB0BDE8F08FBCF1360F937800F0C58016
S31508004F7C62463046002A40F0B8800130854205D991
S31508004F8C0278362A00F0BA80FF2AF3D1DBF804201F
S31508004F9CBCF13C0F049200F08B8161463446BCF19F
S31508004FAC000F40F0A6800134A54207D994F800C03A
S31508004FBCBCF13C0F03D0BCF1FF0FF0D100245A1EF4
S31508004FCC062AC0D801A353F822F000BF5350000894
S31508004FDC534F00081950000801500008534F000899
S31508004FEC534F0008A35000083C2151B90136B5426D
S31508004FFCA9D93178322900F0E280FF29A3D00029FB
S3150800500CF4D0727802321644F1E70024DBF80C006F
S3150800501C05F0DEFF0746002840F0AA809BF8F02032
S3150800502C322A07D19EE00136B5428CD93278322A1B
S3150800503C00F09880FF2A86D0002AF4D072780232C3
S3150800504C1644F1E700240BF11C06002240463146B3
S3150800505CFFF770FD0546002800F0068159464046C4
S3150800506CFFF7AAFD049B824629462B604046022779
S3150800507CFFF714FD1022014606A84FF0000902F0AE
S3150800508CE3FA5346049A294640460297CDE900644A
S3150800509CFFF7BEFD59E7DBF80C0005F099FF04464F
S315080050AC00283FF450AF0146102206A802F0CCFAAD
S315080050BC21464046FFF7CEFC044600283FF443AF92
S315080050CCC27B002A3FF43FAF0BF11C0106220830C5
S315080050DC0FF020FA814600287FF435AFA37B002B0E
S315080050EC7FF431AFC4E900002FE74278023210444E
S315080050FC44E762780232144456E73046994C08EB7A
S3150800510C0811023004226468059304EBC1012C31A2
S3150800511C0FF000FA814600287FF415AF9BF8F0C013
S3150800512CDBF80430BCF13C0F0493059B00F0C080FF
S3150800513CBCF1FF0F7FF431AF5A1E062A3FF605AFB6
S3150800514C01A353F822F000BF51500008574F00082E
S3150800515C17500008534F0008574F0008574F0008C0
S3150800516CA3500008D6F802703FBA002F3FF4EBAEF6
S3150800517C1022394606A80BF11C0602F065FA3946C8
S3150800518C4046FFF767FC0546002800F0C78007680D
S3150800519C002F00F0A7800622314608300FF0BAF926
S315080051AC8146002800F0AA80062100230194404677
S315080051BC02911946049A0096FFF72AFDC3E6D6F81B
S315080051CC0240102206A824BA214602F03DFA2146CE
S315080051DC4046FFF73FFC044600283FF4B4AEE27B9A
S315080051EC002A3FF4B0AE0BF11C0B062204F10800A2
S315080051FC59460FF08FF9814600287FF4A4AEA37B9D
S3150800520C002B7FF4A0AEDAF80430E073D859DA191B
S3150800521CC4F80090D268211AC4F80490013A090916
S3150800522C521A0AD0236910342BB986E054F8103F69
S3150800523C002B00F08280013AF8D100293FF483AEA6
S3150800524C0368002B78D06FF0704304460B4400EBD0
S3150800525C031303E054F8102F002A6ED0A342F9D199
S3150800526C71E690F8F23083E6DAF80420D119D259AF
S3150800527CCF68103A002F3FF466AE01461032907B89
S3150800528C013138B9106828B9D07B002D08BF1546EE
S3150800529C00284FD0B942F1D1002D3FF454AE062266
S315080052AC314605F108000FF0BFF90122EA73D5E67D
S315080052BC5A1E062A3FF647AE01A353F822F000BF42
S315080052CCED520008534F0008E9520008F54F000844
S315080052DC534F0008534F0008A3500008344695E670
S315080052EC3446B0E60623049A4046394602933B46B2
S315080052FCB946CDE90064FFF78BFC26E659464046CD
S3150800530CFFF75AFC0527049A0346294640462A60A5
S3150800531C0297CDE90064FFF77BFC16E60623049A90
S3150800532C4046294602932B46A946CDE90064FFF769
S3150800533C6FFC0AE61546B2E704465946062204F1FE
S3150800534C08000FF071F9049A0123214622604046A1
S3150800535CE373FFF7A3FB1022014606A802F074F9C3
S3150800536CF3E500BFECBD0120F4BF01202DE9F041A7
S3150800537C05462C481C468846174609F0D3F92A4B8D
S3150800538C93F88A31AB4241D3284E737B83B32846B4
S3150800539CFFF7ACFB90F829300646002B39D1C368C9
S315080053ACA34203D003680BB102F0ECFA200102F019
S315080053BC9BFA0546306078B3336A13B94FF4E15358
S315080053CC3362C6F80880C6E9034744B901230024AA
S315080053DC86F8283009F0FCFD2046BDE8F08110223D
S315080053EC2846002115440FF048F9013CF7D1EDE7A2
S315080053FC05F01EFB0E490F48FDF760FF4FF47A7156
S3150800540C0D48FDF7AFFC01237373C0E76FF01A0460
S3150800541CE0E74FF0FF34DDE786F828006FF011045B
S3150800542CD8E700BF68C20120ECBD0120F4BF0120FB
S3150800543C314B000804C00120594E0008D0E902235C
S3150800544CD0E90001FFF792BF70B5044616480E4620
S3150800545C154609F067F9154B93F88A31A3421DD303
S3150800546C2046FFF743FB90F82920D2B9022DC0E954
S3150800547C062205D86DB9002409F0AAFD204670BD90
S3150800548C3268826172680024C26109F0A1FD204667
S3150800549C70BD3268022D8261EDD1F3E76FF01A0404
S315080054ACEAE74FF0FF34E7E768C20120ECBD0120BC
S315080054BC027AD0E90001FFF7C7BF00BF002070478A
S315080054CC70B5054682B01C4809F02CF92846FFF73A
S315080054DC0DFB90F8283033B3836804461BB3036975
